:100000000C942A000C9447000C9447000C94470071
:100010000C9447000C9447000C9447000C94470044
:100020000C9447000C9447000C9447000C94B513B3
:100030000C9447000C9447000C9447000C94470024
:100040000C9447000C9447000C9447000C94C90F83
:100050000C94470011241FBECFE5D4E0DEBFCDBF16
:1000600013E0A0E6B0E0E0EFF2E302C005900D92ED
:10007000A231B107D9F713E0A2E1B3E001C01D92AC
:10008000A13FB107E1F70E94980C0C9477190C94EA
:10009000000008951092360310922603109229034F
:1000A000089581E080932B03089510922B03089507
:1000B00010922B030895109238031092370381E0B9
:1000C00090E0909324038093230310922D031092C9
:1000D0002C03089510922B03089510922B0308957A
:1000E000EF92FF920F931F93CF93DF93CDB7DEB7BD
:1000F00021970FB6F894DEBF0FBECDBFBE016F5F74
:100100007F4F89EC90E00E94B511833019F00E9476
:100110009A142AC089818A3008F0198299818091C5
:100120001B03981721F40E9494148130E9F4E980AC
:10013000FF240E94A517082F0E94A01710E00E9D13
:1001400090010F9D300D1E9D300D1124280F391F79
:1001500020931C03822F90E00E94F01681E0809390
:100160002A03898180931B0321960FB6F894DEBF82
:100170000FBECDBFDF91CF911F910F91FF90EF90F8
:10018000089510921B0310923F03109240031092A7
:1001900041031092420310923A0310923B031092D3
:1001A0003C0310923D030E94A5170E94A017809364
:1001B0001D0390E00E94F01608950F931F93CF93B4
:1001C000DF93EC010E94BE0FAB01BC01209127031D
:1001D00030912803C901A0E0B0E0481759076A0729
:1001E0007B0748F08A019B01081B190B2A0B3B0B6C
:1001F000D901C8010CC0C90180959095A0E0B0E07C
:100200000196A11DB11D840F951FA61FB71F815117
:100210009742A040B04018F1CE01837090708230B8
:10022000910579F08330910589F0019729F0A8981C
:10023000A99AAE9AAF9A0EC0A89AA998AE9AAF9A08
:1002400009C0A89AA99AAE98AF9A04C0A89AA99A88
:10025000AE9AAF9878945093280340932703DF9188
:10026000CF911F910F910895EF92FF920F931F93DB
:100270000E94BE0F9B01AC0160931603709317039D
:1002800080931803909319038091120390911303A4
:10029000A0911403B091150379018A01E81AF90AB3
:1002A0000A0B1B0BD801C701E0923203F092330313
:1002B000009334031093350381519742A040B0401E
:1002C00008F4CBC12093120330931303409314031B
:1002D0005093150380912B03853009F4CFC08630ED
:1002E00090F4823009F467C0833030F4882309F138
:1002F000813009F0A9C13EC0833009F47DC084304B
:1003000009F0A2C19AC0883009F41BC1893038F4C1
:10031000863009F4D4C0873009F096C1F1C08A3024
:1003200009F451C18A3008F42DC18B3009F08CC119
:100330006BC160E080E00E943A0F60E081E00E94C3
:100340003A0F60E082E00E943A0F60E083E00E9492
:100350003A0F64E684E00E943A0F62E385E00E946F
:100360003A0F60E086E00E943A0F60E087E00E946A
:100370003A0F6AC164E680E00E943A0F60E081E0D3
:100380000E943A0F60E082E00E943A0F60E083E052
:100390000E943A0F64E684E00E943A0F64E685E02A
:1003A0000E943A0F60E086E00E943A0F60E087E02A
:1003B0000E943A0F49C164E680E00E943A0F64E669
:1003C00081E00E943A0F60E082E00E943A0F60E014
:1003D00083E00E943A0F64E684E00E943A0F64E6EC
:1003E00085E00E943A0F60E086E00E943A0F60E0EC
:1003F00087E00E943A0F28C164E680E00E943A0F2D
:1004000064E681E00E943A0F64E682E00E943A0FBF
:1004100060E083E00E943A0F64E684E00E943A0FB5
:1004200064E685E00E943A0F60E086E00E943A0FA1
:1004300060E087E00E943A0F07C164E680E00E9416
:100440003A0F64E681E00E943A0F64E682E00E947F
:100450003A0F64E683E00E943A0F64E684E00E946B
:100460003A0F64E685E00E943A0F64E686E00E9457
:100470003A0F60E087E00E943A0FE6C060E080E05B
:100480000E943A0F60E081E00E943A0F60E082E053
:100490000E943A0F60E083E00E943A0F62E384E03A
:1004A0000E943A0F64E685E00E943A0F64E686E017
:1004B0000E943A0F64E687E00E943A0FC5C064E6E6
:1004C00080E00E943A0F64E681E00E943A0F64E601
:1004D00082E00E943A0F64E683E00E943A0F64E6ED
:1004E00084E00E943A0F62E385E00E943A0F60E0E8
:1004F00086E00E943A0F64E687E00E943A0FA4C0AB
:1005000060E080E00E943A0F60E081E00E943A0FD4
:1005100060E082E00E943A0F60E083E00E943A0FC0
:1005200062E384E00E943A0F64E685E00E943A0F9D
:1005300060E086E00E943A0F60E087E00E943A0F98
:1005400083C064E680E00E943A0F64E681E00E9486
:100550003A0F64E682E00E943A0F64E683E00E946C
:100560003A0F64E684E00E943A0F62E385E00E945D
:100570003A0F64E686E00E943A0F60E087E00E944E
:100580003A0F62C060E080E00E943A0F60E081E0D4
:100590000E943A0F60E082E00E943A0F60E083E040
:1005A0000E943A0F62E384E00E943A0F64E685E01D
:1005B0000E943A0F64E686E00E943A0F64E687E004
:1005C0000E943A0F41C064E680E00E943A0F64E660
:1005D00081E00E943A0F64E682E00E943A0F64E6EE
:1005E00083E00E943A0F64E684E00E943A0F62E3DF
:1005F00085E00E943A0F60E086E00E943A0F64E6D0
:1006000087E00E943A0F20C064E680E00E943A0F23
:1006100064E681E00E943A0F64E682E00E943A0FAD
:1006200064E683E00E943A0F62E384E00E943A0F9E
:1006300064E685E00E943A0F60E086E00E943A0F8F
:1006400060E087E00E943A0F80912B038F5F8093D8
:100650002B038C3010F010922B031F910F91FF9001
:10066000EF90089560E080E00E943A0F60E081E042
:100670000E943A0F60E082E00E943A0F60E083E05F
:100680000E943A0F60E084E00E943A0F60E085E04B
:100690000E943A0F60E086E00E943A0F60E087E037
:1006A0000E943A0F0E94BE0F6093120370931303CF
:1006B00080931403909315036093160370931703AC
:1006C000809318039093190310923203109233030E
:1006D000109234031092350310922B030895EF9279
:1006E000FF920F931F930E94BE0F9B01AC0160937A
:1006F0001603709317038093180390931903809146
:10070000120390911303A0911403B0911503790182
:100710008A01E81AF90A0A0B1B0BD801C701E092FB
:100720003203F09233030093340310933503895856
:100730009341A040B04008F4CBC120931203309302
:100740001303409314035093150380912B038530BA
:1007500009F4CFC0863090F4823009F467C083304A
:1007600030F4882309F1813009F0A9C13EC08330FB
:1007700009F47DC0843009F0A2C19AC0883009F420
:100780001BC1893038F4863009F4D4C0873009F0B1
:1007900096C1F1C08A3009F451C18A3008F42DC1E4
:1007A0008B3009F08CC16BC160E080E00E943A0F91
:1007B00060E081E00E943A0F60E082E00E943A0F20
:1007C00060E083E00E943A0F64E684E00E943A0F02
:1007D00062E385E00E943A0F64E686E00E943A0FE9
:1007E00060E087E00E943A0F6AC164E680E00E9400
:1007F0003A0F60E081E00E943A0F60E082E00E94E0
:100800003A0F60E083E00E943A0F62E384E00E94C6
:100810003A0F64E685E00E943A0F60E086E00E94AD
:100820003A0F64E687E00E943A0F49C160E080E039
:100830000E943A0F60E081E00E943A0F60E082E09F
:100840000E943A0F60E083E00E943A0F64E684E081
:100850000E943A0F62E385E00E943A0F64E686E068
:100860000E943A0F60E087E00E943A0F28C164E6D8
:1008700080E00E943A0F64E681E00E943A0F60E057
:1008800082E00E943A0F60E083E00E943A0F62E348
:1008900084E00E943A0F64E685E00E943A0F60E02F
:1008A00086E00E943A0F64E687E00E943A0F07C193
:1008B00060E080E00E943A0F60E081E00E943A0F21
:1008C00060E082E00E943A0F60E083E00E943A0F0D
:1008D00064E684E00E943A0F62E385E00E943A0FEA
:1008E00064E686E00E943A0F60E087E00E943A0FDB
:1008F000E6C064E680E00E943A0F64E681E00E9470
:100900003A0F64E682E00E943A0F60E083E00E94C2
:100910003A0F62E384E00E943A0F64E685E00E94A9
:100920003A0F60E086E00E943A0F64E687E00E949A
:100930003A0FC5C060E080E00E943A0F60E081E0BD
:100940000E943A0F60E082E00E943A0F60E083E08C
:100950000E943A0F64E684E00E943A0F62E385E069
:100960000E943A0F64E686E00E943A0F60E087E05A
:100970000E943A0FA4C064E680E00E943A0F64E649
:1009800081E00E943A0F64E682E00E943A0F64E63A
:1009900083E00E943A0F62E384E00E943A0F64E62B
:1009A00085E00E943A0F60E086E00E943A0F64E61C
:1009B00087E00E943A0F83C060E080E00E943A0F17
:1009C00060E081E00E943A0F60E082E00E943A0F0E
:1009D00060E083E00E943A0F64E684E00E943A0FF0
:1009E00062E385E00E943A0F64E686E00E943A0FD7
:1009F00060E087E00E943A0F62C064E680E00E94F7
:100A00003A0F64E681E00E943A0F64E682E00E94B9
:100A10003A0F64E683E00E943A0F62E384E00E94AA
:100A20003A0F64E685E00E943A0F60E086E00E949B
:100A30003A0F64E687E00E943A0F41C060E080E030
:100A40000E943A0F60E081E00E943A0F60E082E08D
:100A50000E943A0F60E083E00E943A0F64E684E06F
:100A60000E943A0F62E385E00E943A0F64E686E056
:100A70000E943A0F60E087E00E943A0F20C064E6CF
:100A800080E00E943A0F64E681E00E943A0F64E63B
:100A900082E00E943A0F64E683E00E943A0F62E32C
:100AA00084E00E943A0F64E685E00E943A0F60E01D
:100AB00086E00E943A0F64E687E00E943A0F809138
:100AC0002B038F5F80932B038C3010F010922B033D
:100AD0001F910F91FF90EF90089560E080E00E94D9
:100AE0003A0F60E081E00E943A0F60E082E00E94ED
:100AF0003A0F60E083E00E943A0F60E084E00E94D9
:100B00003A0F60E085E00E943A0F60E086E00E94C4
:100B10003A0F60E087E00E943A0F0E94BE0F609398
:100B2000120370931303809314039093150360933F
:100B30001603709317038093180390931903109270
:100B40003203109233031092340310923503109243
:100B50002B030895EF92FF920F931F930E94BE0FF5
:100B60009B01AC01609316037093170380931803E5
:100B7000909319038091120390911303A091140391
:100B8000B091150379018A01E81AF90A0A0B1B0BC7
:100B9000D801C701E0923203F0923303009334038B
:100BA00010933503855C9940A040B04008F479C0AB
:100BB00020931203309313034093140350931503AF
:100BC00080912B03883071F1893070F48530D9F031
:100BD000863020F4843009F05FC010C08630C1F048
:100BE000873009F059C019C08A3031F18A30F8F0E5
:100BF0008B3039F18C3009F04FC028C064E680E0BA
:100C00000E943A0F49C064E681E00E943A0F44C056
:100C100064E682E00E943A0F3FC064E683E00E94EF
:100C20003A0F3AC064E684E00E943A0F35C064E6A9
:100C300085E00E943A0F30C064E686E00E943A0FD9
:100C40002BC064E687E00E943A0F26C060E080E097
:100C50000E943A0F60E081E00E943A0F60E082E07B
:100C60000E943A0F60E083E00E943A0F60E084E067
:100C70000E943A0F60E085E00E943A0F60E086E053
:100C80000E943A0F60E087E00E943A0FA89AA99A62
:100C9000AE9AAF9A1092250380912B038F5F8093B9
:100CA0002B031F910F91FF90EF90089560E080E07B
:100CB0000E943A0F60E081E00E943A0F60E082E01B
:100CC0000E943A0F60E083E00E943A0F60E084E007
:100CD0000E943A0F60E085E00E943A0F60E086E0F3
:100CE0000E943A0F60E087E00E943A0FA898A99806
:100CF000AE98AF980E94BE0F6093120370931303D7
:100D00008093140390931503609316037093170355
:100D100080931803909319031092320310923303B7
:100D2000109234031092350310922B030895EF9222
:100D3000FF920F931F93CF93DF930E94BE0F9B01EF
:100D4000AC0160931603709317038093180390937C
:100D500019038091120390911303A0911403B09191
:100D6000150379018A01E81AF90A0A0B1B0BD8014D
:100D7000C701E0923203F0923303009334031093DF
:100D80003503895E9340A040B04038F120931203B0
:100D9000309313034093140350931503C0E0D0E045
:100DA00004E710E09C2F80912B038C0F803108F01A
:100DB0008051F801E80FF11D6081892F0E943A0FE0
:100DC0002196C430D10571F780912B038F5F8093FA
:100DD0002B03803110F010922B03DF91CF911F91E4
:100DE0000F91FF90EF900895EF92FF920F931F9352
:100DF000CF93DF930E94BE0F9B01AC01609316035B
:100E00007093170380931803909319038091120332
:100E100090911303A0911403B091150379018A01F5
:100E2000E81AF90A0A0B1B0BD801C701E09232033A
:100E3000F09233030093340310933503895E93409B
:100E4000A040B04028F12093120330931303409345
:100E5000140350931503C0E0D0E00CE610E080913D
:100E60002B038C0F843008F08450FE01E00FF11F3B
:100E700060810E943A0F2196C430D10581F780919C
:100E80002B038F5F80932B03843010F010922B0381
:100E9000DF91CF911F910F91FF90EF900895EF9206
:100EA000FF920F931F930E94BE0F9B01AC016093B2
:100EB000160370931703809318039093190380917E
:100EC000120390911303A0911403B09115037901BB
:100ED0008A01E81AF90A0A0B1B0BD801C701E09234
:100EE0003203F09233030093340310933503895E89
:100EF0009340A040B04008F414C3209312033093F1
:100F0000130340931403509315038091230390918E
:100F10002403019791F480912C0390912D03843642
:100F2000910530F4059690932D0380932C0327C0F0
:100F3000109224031092230322C080912C039091DD
:100F40002D03009731F0059790932D0380932C0388
:100F500016C081E090E09093240380932303809156
:100F600037039091380301969093380380933703A9
:100F7000049728F010923803109237030FC0809125
:100F80003703909138038230910509F469C18330A9
:100F9000910509F416C2019709F4B1C0809160006F
:100FA00090E020912C0330912D03AC01429FC001B1
:100FB000439F900D529F900D112464E670E00E94B3
:100FC000261980E00E943A0F8091610090E0209104
:100FD0002C0330912D037C01E29EC001E39E900D15
:100FE000F29E900D112464E670E00E94261981E0C3
:100FF0000E943A0F8091620090E020912C03309182
:101000002D038C01029FC001039F900D129F900D34
:10101000112464E670E00E94261982E00E943A0FD3
:101020008091600090E020912C0330912D03AC0161
:10103000429FC001439F900D529F900D112464E682
:1010400070E00E94261983E00E943A0F80916100AF
:1010500090E020912C0330912D037C01E29EC00191
:10106000E39E900DF29E900D112464E670E00E94C4
:10107000261984E00E943A0F8091620090E020914E
:101080002C0330912D038C01029FC001039F900D12
:10109000129F900D112464E670E00E94261985E0ED
:1010A0000E943A0F8091600090E020912C033091D3
:1010B0002D03AC01429FC001439F900D529F900DA4
:1010C000112464E670E00E94261986E00E943A0F1F
:1010D0008091610090E020912C0330912D037C01E0
:1010E000E29EC001E39E900DF29E900D112464E6F5
:1010F00070E00E94261987E00E943A0F12C2809188
:10110000630090E020912C0330912D038C01029F0D
:10111000C001039F900D129F900D112464E670E0B2
:101120000E94261980E00E943A0F8091640090E0AE
:1011300020912C0330912D03AC01429FC001439FAD
:10114000900D529F900D112464E670E00E942619C4
:1011500081E00E943A0F8091650090E020912C037D
:1011600030912D037C01E29EC001E39E900DF29E22
:10117000900D112464E670E00E94261982E00E941E
:101180003A0F8091630090E020912C0330912D0361
:101190008C01029FC001039F900D129F900D11249E
:1011A00064E670E00E94261983E00E943A0F809165
:1011B000640090E020912C0330912D03AC01429FFC
:1011C000C001439F900D529F900D112464E670E082
:1011D0000E94261984E00E943A0F8091650090E0F9
:1011E00020912C0330912D037C01E29EC001E39EEF
:1011F000900DF29E900D112464E670E00E94261975
:1012000085E00E943A0F8091630090E020912C03CA
:1012100030912D038C01029FC001039F900D129FFE
:10122000900D112464E670E00E94261986E00E9469
:101230003A0F8091640090E020912C0330912D03AF
:10124000AC01429FC001439F900D529F900D11240D
:1012500064E670E00E94261987E00E943A0F61C19F
:101260008091660090E020912C0330912D037C0149
:10127000E29EC001E39E900DF29E900D112464E663
:1012800070E00E94261980E00E943A0F809167006A
:1012900090E020912C0330912D038C01029FC0011E
:1012A000039F900D129F900D112464E670E00E9440
:1012B000261981E00E943A0F8091680090E0209109
:1012C0002C0330912D03AC01429FC001439F900D30
:1012D000529F900D112464E670E00E94261982E06E
:1012E0000E943A0F8091660090E020912C0330918B
:1012F0002D037C01E29EC001E39E900DF29E900DB5
:10130000112464E670E00E94261983E00E943A0FDF
:101310008091670090E020912C0330912D038C0187
:10132000029FC001039F900D129F900D112464E64F
:1013300070E00E94261984E00E943A0F80916800B4
:1013400090E020912C0330912D03AC01429FC0010D
:10135000439F900D529F900D112464E670E00E940F
:10136000261985E00E943A0F8091660090E0209156
:101370002C0330912D037C01E29EC001E39E900D71
:10138000F29E900D112464E670E00E94261986E01A
:101390000E943A0F8091670090E020912C033091D9
:1013A0002D038C01029FC001039F900D129F900D91
:1013B000112464E670E00E94261987E00E943A0F2B
:1013C000B0C08091690090E020912C0330912D03F2
:1013D000AC01429FC001439F900D529F900D11247C
:1013E00064E670E00E94261980E00E943A0F809126
:1013F0006A0090E020912C0330912D037C01E29E45
:10140000C001E39E900DF29E900D112464E670E001
:101410000E94261981E00E943A0F80916B0090E0B3
:1014200020912C0330912D038C01029FC001039F5A
:10143000900D129F900D112464E670E00E94261911
:1014400082E00E943A0F8091690090E020912C0385
:1014500030912D03AC01429FC001439F900D529FDC
:10146000900D112464E670E00E94261983E00E942A
:101470003A0F80916A0090E020912C0330912D0367
:101480007C01E29EC001E39E900DF29E900D11241E
:1014900064E670E00E94261984E00E943A0F809171
:1014A0006B0090E020912C0330912D038C01029F62
:1014B000C001039F900D129F900D112464E670E00F
:1014C0000E94261985E00E943A0F8091690090E001
:1014D00020912C0330912D03AC01429FC001439F0A
:1014E000900D529F900D112464E670E00E94261921
:1014F00086E00E943A0F80916A0090E020912C03D0
:1015000030912D037C01E29EC001E39E900DF29E7E
:10151000900D112464E670E00E94261987E00E9475
:101520003A0F1F910F91FF90EF900895EF92FF9265
:101530000F931F93CF93DF930E94BE0F9B01AC01CB
:101540006093160370931703809318039093190305
:101550008091120390911303A0911403B09115038D
:1015600079018A01E81AF90A0A0B1B0BD801C70195
:10157000E0923203F0923303009334031093350367
:1015800089589341A040B04020F12093120330933A
:1015900013034093140350931503C0E0D0E08091EF
:1015A0002B038C1729F464E68C2F0E943A0F04C099
:1015B00060E08C2F0E943A0F2196C430D10579F754
:1015C00080912B038F5F80932B03843010F0109257
:1015D0002B03DF91CF911F910F91FF90EF90089512
:1015E000EF92FF920F931F930E94BE0F9B01AC01DD
:1015F0006093160370931703809318039093190355
:101600008091120390911303A0911403B0911503DC
:1016100079018A01E81AF90A0A0B1B0BD801C701E4
:10162000E0923203F09233030093340310933503B6
:1016300089589341A040B04008F4E8C020931203B9
:1016400030931303409314035093150380912B039D
:10165000833009F470C0843028F4813051F1823035
:1016600039F448C0843009F487C0853009F4A5C036
:1016700064E680E00E943A0F60E081E00E943A0F49
:1016800060E082E00E943A0F64E683E00E943A0F35
:1016900060E084E00E943A0F60E085E00E943A0F2B
:1016A00064E686E00E943A0F60E087E00E943A0F0D
:1016B000A4C064E680E00E943A0F64E681E00E94E4
:1016C0003A0F60E082E00E943A0F64E683E00E94F5
:1016D0003A0F64E684E00E943A0F60E085E00E94E1
:1016E0003A0F64E686E00E943A0F64E687E00E94C3
:1016F0003A0F83C060E080E00E943A0F64E681E028
:101700000E943A0F60E082E00E943A0F60E083E0BE
:101710000E943A0F64E684E00E943A0F60E085E0A0
:101720000E943A0F60E086E00E943A0F64E687E08C
:101730000E943A0F62C060E080E00E943A0F64E6C7
:1017400081E00E943A0F64E682E00E943A0F60E076
:1017500083E00E943A0F64E684E00E943A0F64E658
:1017600085E00E943A0F60E086E00E943A0F64E64E
:1017700087E00E943A0F41C060E080E00E943A0F8B
:1017800060E081E00E943A0F64E682E00E943A0F36
:1017900060E083E00E943A0F60E084E00E943A0F2C
:1017A00064E685E00E943A0F60E086E00E943A0F0E
:1017B00060E087E00E943A0F20C064E680E00E946B
:1017C0003A0F60E081E00E943A0F64E682E00E94F6
:1017D0003A0F64E683E00E943A0F60E084E00E94E2
:1017E0003A0F64E685E00E943A0F64E686E00E94C4
:1017F0003A0F60E087E00E943A0F80912B038F5FE1
:1018000080932B03863010F010922B031F910F91C1
:10181000FF90EF900895EF92FF920F931F930E9415
:10182000BE0F9B01AC016093160370931703809366
:101830001803909319038091120390911303A091C0
:101840001403B091150379018A01E81AF90A0A0B09
:101850001B0BD801C701E0923203F09233030093CF
:1018600034031093350389589341A040B04008F4E5
:101870005AC02093120330931303409314035093E0
:10188000150380912B03813061F16091600080E04D
:101890000E943A0F6091610081E00E943A0F6091CE
:1018A000620082E00E943A0F6091600083E00E9433
:1018B0003A0F6091610084E00E943A0F60916200EB
:1018C00085E00E943A0F6091600086E00E943A0F26
:1018D0006091610087E00E943A0F81E080932B03C2
:1018E00022C060E080E00E943A0F60E081E00E9448
:1018F0003A0F60E082E00E943A0F60E083E00E94CD
:101900003A0F60E084E00E943A0F60E085E00E94B8
:101910003A0F60E086E00E943A0F60E087E00E94A4
:101920003A0F10922B031F910F91FF90EF900895A3
:101930008F929F92AF92BF92CF92DF92FF920F93BE
:101940001F93CF93DF938FEF87BB88BB8CEF81BB57
:10195000909883EC84BBA898A998AE98AF980E9401
:10196000970F0E943B100E945D100E94930E0E94F0
:1019700057110E94B1110E9480140E94E0110E9430
:101980001F180E944913789465E273E088EC90E098
:101990000E94B511833009F0FFCF80912503893073
:1019A00010F0109225038AE080933E038BE081BD06
:1019B00000E0FF24C0EAD0E00F2EF4E1CF2EF2E0E9
:1019C000DF2EF02D0F2EFAE5AF2EF2E0BF2EF02D18
:1019D0000F2EFCE18F2EF1E09F2EF02DA8950E9496
:1019E0005B11182F0E9426150E94F7180E942717D6
:1019F000103111F01032C9F4E02FF0E0EE0FFF1FAC
:101A0000EC0FFD1F64EF71E0808191810E94421014
:101A10000F5F0C3008F00BE0809125038F5F8093FF
:101A20002503883010F0109225031034D1F4E02FF4
:101A3000F0E0EE0FFF1FEC0FFD1F6AEF70E08081FA
:101A400091810E9442100111015080912503882349
:101A500019F488E0809325038091250381508093B9
:101A600025031038C9F481E0F81659F082E0F81621
:101A700079F0C4010E948D10F39482E08F1558F024
:101A80000BC0C6010E948D10FF246894F1F804C0B9
:101A9000C5010E948D10FF249091250380913E0383
:101AA000981799F1943011F1953048F49130A9F0DC
:101AB000913080F09230A1F0933019F514C0963037
:101AC000D9F09630B0F09730D1F09830D1F40E9430
:101AD000560617C00E946D0514C00E94320311C043
:101AE0000E9451000EC00E9455000BC00E94580079
:101AF00008C00E945B0005C00E946A0002C00E94EC
:101B00006D008091250380933E030E94B70E809163
:101B100025038830E1F090E00E94DD0080912503EC
:101B2000843021F1853050F48130B9F0813090F06B
:101B30008230B1F0833009F051CF15C08630E1F02A
:101B40008630B8F08730D9F0883009F047CF0E944E
:101B5000AA0544CF0E946F0341CF0E9434013ECFBB
:101B60000E940B0C3BCF0E94F00A38CF0E94960ACD
:101B700035CF0E944F0732CF0E94F4062FCF0E942C
:101B800097062CCFEF92FF920F931F930E94BE0FE8
:101B90009B01AC01609316037093170380931803A5
:101BA000909319038091120390911303A091140351
:101BB000B091150379018A01E81AF90A0A0B1B0B87
:101BC000D801C701E0923203F0923303009334034B
:101BD00010933503895E9340A040B04008F452C092
:101BE000F894979B02C0979801C0979A7894209395
:101BF0001203309313034093140350931503609121
:101C0000360380E00E943A0F6091260381E00E9433
:101C10003A0F6091290382E00E943A0F60913603E7
:101C200083E00E943A0F6091260384E00E943A0FFD
:101C30006091290385E00E943A0F6091360386E0A7
:101C40000E943A0F6091260387E00E943A0F80912C
:101C500029038F5F809329038536A0F01092290312
:101C6000809136038F5F80933603853658F010924B
:101C70003603809126038F5F80932603853610F00C
:101C8000109226031F910F91FF90EF9008950E94EC
:101C9000BE0F6093160370931703809318039093FD
:101CA00019032091120330911303409114035091B2
:101CB0001503621B730B840B950B609332037093B7
:101CC000330380933403909335036151774280400E
:101CD000904040F16091600080E00E943A0F609176
:101CE000610081E00E943A0F6091620082E00E94F0
:101CF0003A0F6091600083E00E943A0F60916100AA
:101D000084E00E943A0F6091620085E00E943A0FE1
:101D10006091600086E00E943A0F6091610087E068
:101D20000E943A0F08951092470391E09093460362
:101D30001092490382E08093480310924B0384E0A1
:101D400080934A0310924D0388E080934C03909354
:101D500043038FE08093590310925803109262035B
:101D600010924503109263031092440308950F9359
:101D70001F93CF93DF93929A80914403882309F4B1
:101D800073C0F89480916203813011F41092620361
:101D90007894109244038DED809351038093530304
:101DA00080935503809357038FE080934F031092E5
:101DB0004E03C6E4D3E071E0AEE4B3E08E01085F09
:101DC0001F4F498168814423C1F1862F80959091EE
:101DD0004F03892380934F03443679F17723D1F160
:101DE00090914E039417B1F420E030E00AC0252F03
:101DF00030E0F901EE0FFF1FEA0FFB1F908149173A
:101E000061F4F901EE0FFF1FEA0FFB1F8181862BA2
:101E1000818313C050E020E030E0491750F4F9010D
:101E2000EE0FFF1FEA0FFB1F818140836183492F63
:101E3000682F5F5F5717D9F60DC02296C017D107DC
:101E400009F0BFCF70936403F89481E0809362033C
:101E500078940AC0E72FF0E0EE0FFF1FEA0FFB1F98
:101E6000408361837F5FE9CF9298DF91CF911F918B
:101E70000F91089590E0880F991FFC01E95BFC4FDA
:101E8000653608F064E684E6861B808381E08093F3
:101E900044030895CF93DF93909A80914503282FB0
:101EA0002F5F20934503243618F01092450302C09B
:101EB000222309F510926303809162038130B9F403
:101EC000109262033091640330934303332379F01B
:101ED000AEE4B3E0E8E5F3E020E09C91ED01898118
:101EE000818390832F5F129632962317B1F78091EA
:101EF000590388BB18C0309163038091430338179E
:101F000090F4832F90E0880F991FFC01E85AFC4F52
:101F10008081281740F088B39181892B88BB832F5B
:101F20008F5F809363039098DF91CF910895109213
:101F30006503109266031092670310926803109273
:101F40006B0310926A031092690383E68CBF8AE0E8
:101F500083BF89B7826089BF83E88FBD89E18EBD69
:101F6000089583E48FBD089583E88FBD0895F894A4
:101F7000292F33272BBD8ABD78940895F89478943F
:101F80006091650370916603809167039091680387
:101F900008951F920F920FB60F9211242F933F9323
:101FA0004F935F936F937F938F939F93AF93BF9361
:101FB000EF93FF938091650390916603A09167036F
:101FC000B09168030196A11DB11D809365039093A4
:101FD0006603A0936703B093680380916B038F5FE0
:101FE00080936B03823020F00E944A0F10926B03A3
:101FF0008091690390916A03019690936A0380939C
:1020000069038436910550F00E94EF100E942B1056
:1020100010926A03109269030E94F511FF91EF91EB
:10202000BF91AF919F918F917F916F915F914F91F0
:102030003F912F910F900FBE0F901F90189520E0A9
:1020400030E080916C0390916D03892B11F021E0B9
:1020500030E0C901089580916C0390916D03009761
:1020600049F0019790936D0380936C03892B11F4D1
:102070000E94B40F089510926D0310926C030E9499
:10208000B40F0895CF93DF93EB016115710511F43F
:1020900080E00FC070936D0360936C030E94B70FD4
:1020A000F894D0936D03C0936C030E94B10F7894A1
:1020B00081E090E0DF91CF91089510926F0310922C
:1020C0006E030895982FE62FF0E0EE0FFF1FE85102
:1020D000FF4F0190F081E02D883010F080E002C0C9
:1020E00088E0891B02C0F695E7958A95E2F7CF0153
:1020F0000895282FE62FF0E0EE0FFF1FEE5FFE4F52
:1021000080819181283010F022E001C0265002C069
:10211000969587952A95E2F708950F931F938C0162
:10212000FC01228130E02F7730700024369527950E
:102130000794369527950794322F202D83818F732E
:10214000280F311D309376032093750340E050E053
:1021500060E67AEE80E090E00E943A1930937403D2
:1021600020937303F801218130E0F901E873F070E6
:10217000F595E795F595E795F595E795EB52FD4FC4
:10218000808190E090937203809371032770307088
:102190003093780320937703F894C80106969093C0
:1021A0007A038093790310927003F801848190E0A0
:1021B0008F779070002496958795079496958795CC
:1021C0000794982F802D25812F73820F911D909356
:1021D0006F0380936E0378941F910F9108950F936E
:1021E0001F93CF93DF9380916E0390916F03892BA0
:1021F00009F458C080917003882309F050C0A09161
:102200007903B0917A032C912223CCF4ED01E9817A
:102210004E2F4770F0E0E873F070F595E795F5956F
:10222000E795F595E795EB52FD4F6081322F3F70B2
:10223000CD01029690937A03809379030CC040916C
:10224000770360917103322F3F70CD010196909317
:102250007A038093790370E0809173039091740303
:102260000E9426196093700326FF05C0862F86956D
:10227000860F809370030091700310E0632F842F0A
:102280000E947910B8010E94421080916E039091D3
:102290006F03019790936F0380936E0303C0815087
:1022A00080937003DF91CF911F910F910895109249
:1022B0007E031ABA08951F9389B3182F10950E94B0
:1022C000BE0FAB0120917E03213041F12230E1F1BC
:1022D000112309F441C070937C0360937B0381E078
:1022E00080937E0314FF05C080E180937D0320E08E
:1022F00034C015FF05C080E280937D0320E02DC02F
:1023000016FF05C080E480937D0320E026C01123E2
:102310001CF580E880937D0320E01FC020917D03A1
:10232000812F822369F080917B0390917C03481B6D
:10233000590B495E534080F082E080937E030DC0CC
:1023400010927E0320E009C080917D03812321F457
:1023500010927E0320E001C020E0822F90E01F91C8
:10236000089583E080937F030895FB01E19B03C000
:1023700082E090E008959FBB8EBBE09A8DB380838E
:1023800083E090E008959093200380931F0360936F
:102390001E03E19B03C082E090E008959FBB8EBBCB
:1023A0006DBBF894E29AE19A789483E090E0089506
:1023B000E19B03C082E090E0089583E090E00895FF
:1023C00087E18DB9BC9ABF9AC49AC79A80E0A89554
:1023D0008F5F8436E1F7109283031092820310928C
:1023E0008403709887E58DB90895809184038130C6
:1023F00009F520918203309183032115310531F4D1
:10240000779B31C010928403C49A0895779B2BC0A8
:10241000C498E0918003F091810381918FB9F0938A
:102420008103E0938003C901019790938303809314
:10243000820308958230B9F4C498E0918003F0914A
:10244000810381918FB9F0938103E09380038091A0
:102450008203909183030197909383038093820377
:1024600081E08093840308959C01809184038823F4
:1024700089F42115310571F06115710559F07093DA
:10248000810360938003309383032093820382E06F
:102490008093840308958091840390E008950F92BF
:1024A000EF93FF93E0918503F0918603C895E09147
:1024B0008703F09188030082FF91EF910F900895B8
:1024C0006F927F928F929F92AF92BF92CF92DF9244
:1024D000FF920F931F93CF93DF938C013B0150E04A
:1024E0005A01AA0CBB1C1A141B041CF020E030E09B
:1024F0003CC0FF240F2EF2E98F2EF5E29F2EF02D27
:102500000F2EF9E8CF2EF3E0DF2EF02DC0E0D0E063
:10251000F8018081803808F08FE790E0880F991FDC
:102520008C0F9D1F880D991D9093860380938503C2
:102530008F2D8C0F9601280F311D30938803209327
:1025400087030E944F122196C230D10509F732E06D
:10255000F30EF80180812F2D30E02A153B051CF485
:102560000F5F1F4FD3CF8093210389E893E0F301DE
:1025700091838083C901DF91CF911F910F91FF90CB
:10258000DF90CF90BF90AF909F908F907F906F9093
:1025900008950000EEEEDDDDBBB7777BF7F4FF8B2F
:1025A0008F7F78FF2AB23AE22FA3EBA6F72BEBA29C
:1025B000FBE2FFFFFFFFFFFFFFFFFFFFFFFFFFFF4C
:1025C000FFFF633B7D79632272FFFDE5673BD75FC9
:1025D000F57DFFFFBEFFF7F7000023322552A11F54
:1025E000FDFFDDFFFFDD5559777BFFDF7FFBFF2B15
:1025F000FDDFA886BEFF6AAA2ABE3EF3CBB22BA29D
:10260000BAFE2AA22AB2F77FF7DFDDFF6FBBFFDD3C
:102610007A7F62A63AE2223EEBA6A23E6BA2FBE2E2
:102620002BA63EE3F77FAEAFDDE3EFA7BCE59EE56B
:10263000AAA67AE28AA65AE22BB2F37EAEA7FDC71B
:102640009EC7DDDDFD7DE99EE37FDFFDF73EF8DF20
:10265000EFBFFFFD3AE2223EEBA6A23E6BA2FBE2F9
:102660002BA63EE3F77FAEAFDDE3EFA7BCE59EE52B
:10267000AAA67AE28AB65AE22BB2F37EAEA7FDC7CB
:102680009EC7DDDDFD6DE99EE37BF77F773E76EB50
:102690002A2610BC83E389B980E48BB91AB88EE886
:1026A00080BD1092BB031092B2031092B10388E96F
:1026B0008AB908958BB190E0969587959295829509
:1026C0008F7089279F70892781709070089590E49A
:1026D0009BB98CB90895CF93DF93EC019091B1032E
:1026E0008091B203891719F480E090E018C0E92FB7
:1026F000F0E0DF01AD54BC4F8C918883E954FC4F6E
:102700008081FB018083F894892F8F5F8093B103D0
:10271000843010F01092B103789481E090E0DF9162
:10272000CF910895CF93DF93CDB7DEB722970FB641
:10273000F894DEBF0FBECDBF0E945A13813061F402
:10274000BE016E5F7F4FCE0101960E946B138130F8
:1027500019F489810E94671322960FB6F894DEBFA0
:102760000FBECDBFDF91CF9108951F920F920FB68C
:102770000F9211242F933F938F939F93AF93BF9307
:10278000EF93FF933CB18BB18C719091BB03282FD9
:10279000292B2093BB03E091B2039E2F9F5F9430BF
:1027A00008F090E08091B103981769F0F0E0DF0144
:1027B000AD54BC4F3C93E954FC4F20839093B2033B
:1027C0001092BB0304C0822F81608093BB03FF91F2
:1027D000EF91BF91AF919F918F913F912F910F906A
:1027E0000FBE0F901F901895DC01FB01808188239C
:1027F00029F08D93319680818823D9F71C92089512
:10280000FC018081882321F0319680818823E1F7C3
:10281000CF010E94F4130895FC01DA0111961C9275
:102820001E92662359F1808180538A3020F540E062
:1028300005C03196808180538A30E8F48D919C9157
:1028400011979C01220F331F880F991F880F991F22
:10285000880F991F280F391F11963C932E93808162
:1028600090E0C097820F931F11969C938E934F5FB9
:102870004617F9F603C080E090E0089581E090E00B
:102880000895FC01DA011C926623F9F030E0208102
:10289000922F90539A3060F0822F8156863010F438
:1028A000975206C0822F8154863060F4922F97533E
:1028B0008C918295807F890F8C933F5F361729F02A
:1028C0003196E5CF80E090E0089581E090E00895B2
:1028D000CF93DF939C01862F82958F70AEEEB2E08E
:1028E000FD01E80FF11D8081F90181936F70A60F42
:1028F000B11D8C91E90189831182DF91CF910895F7
:1029000081E08093D3031092C6031092BD0310920E
:10291000C2031092C1031092C3038093C0031092AC
:10292000D5031092D40308958091C0031092C00380
:1029300090E0089581E08093C00308956F927F92A4
:102940008F929F92BF92CF92DF92EF92FF920F935E
:102950001F93CF93DF93CDB7DEB722970FB6F894CE
:10296000DEBF0FBECDBF8C01B62E3A01CC24DD24D4
:102970006894C1F8CC0EDD1E7E010894E11CF11CA8
:102980000F2EFEEF8F2EFFEF9F2EF02D880E991E3B
:1029900040C08091C603F801E80FF11D8981808352
:1029A0008091BD039A81892B8093BD034091C6031A
:1029B000942F9F5F9093C603923010F1292F30E03F
:1029C000F901E00FF11F319780818A30C9F4F901D4
:1029D000E80DF91D80818D3099F4842F8150D30149
:1029E0008C9310821092C6038091BD03882319F442
:1029F00081E090E017C01092BD0382E090E012C029
:102A00009B1538F01092C6031092BD0382E090E04F
:102A100009C0B601C7010E946B13813009F4B9CF18
:102A200083E090E022960FB6F894DEBF0FBECDBFD4
:102A3000DF91CF911F910F91FF90EF90DF90CF909A
:102A4000BF909F908F907F906F9008952F923F92AC
:102A50004F925F926F927F928F929F92AF92BF92AE
:102A6000CF92DF92EF92FF920F931F93CF93DF935A
:102A7000CDB7DEB723970FB6F894DEBF0FBECDBF3C
:102A80000F2EFDEDEF2EF2E0FF2EF02D07EC13E000
:102A90000F2EFCEECF2EF2E0DF2EF02D0F2EF3ECFA
:102AA000AF2EF3E0BF2EF02D0F2EF9EE8F2EF2E0B9
:102AB0009F2EF02D66247724689461F8600E711EB5
:102AC0000F2EF0EE4F2EF2E05F2EF02D2224332455
:102AD000689421F82C0E3D1E0E94BE0F2091C40365
:102AE0003091C503621B730B8091D503813039F49B
:102AF000695E734020F08093C0031092D5038091EB
:102B0000D303853009F4CBC0863078F48230B9F134
:102B1000833020F4813009F046C11AC0833009F4B3
:102B20006EC0843009F03FC195C0883009F413C1EC
:102B3000893038F4863009F4D7C0873009F033C1C2
:102B400006C1893009F40FC18A3009F02CC1F0C0E8
:102B50004CEB53E06CE0C8010E949E14833009F4F2
:102B600026C1823041F4B701C8010E94F41388E005
:102B70008093D303B1CF82E08093D303ADCF809114
:102B8000C703873501F1883560F4823461F18334FD
:102B900018F4813461F513C08235C9F0863539F5F2
:102BA0001AC08237A1F0833728F4813641F082368B
:102BB000F1F419C0863779F08737C9F404C083E08F
:102BC0008093D30389CF84E08093D30385CF86E0BD
:102BD0008093D30381CFB201C8010E94F41388E02F
:102BE0008093D30379CF8AE08093D30375CFB70165
:102BF000C8010E94F41388E08093D3036DCF8091C5
:102C0000C8038032F9F4A10163E089EC93E00E94EB
:102C10000C14813079F48A819B819093C203809354
:102C2000C103B70187EC93E00E94001488E0809311
:102C3000D30352CFB701C8010E94F41388E08093F8
:102C4000D3034ACFB701C8010E94F41388E08093F0
:102C5000D30342CF8091C8038032C9F4AE014F5FE5
:102C60005F4F62E089EC93E00E944114813039F4B7
:102C700089818093C30385E08093D3032DCFB7016F
:102C8000C8010E94F41388E08093D30325CFB701D5
:102C9000C8010E94F41388E08093D3031DCF609194
:102CA000C3038091C1039091C2030E94C31183307A
:102CB00009F07DC08091C1039091C2030196909369
:102CC000C2038093C103B701C8010E94001488E0C9
:102CD0008093D30381E08093D5030E94BE0F70934D
:102CE000C5036093C403F8CEB5018091C1039091F0
:102CF000C2030E94B511833009F059C08091C1030D
:102D00009091C20301969093C2038093C103B401D2
:102D1000C8010E94F4136091C303C3010E946814A8
:102D2000B701C8010E94001488E08093D303D4CE79
:102D3000B601C8010E94F413B701C8010E94001433
:102D400088E08093D30381E08093D403C5CE81E0F3
:102D50008093D303C1CE1093BF030093BE0389E0D9
:102D60008093D303B9CEE091BE03F091BF0380817D
:102D7000882381F00E945A138130C9F4E091BE0388
:102D8000F091BF038191F093BF03E093BE030E94D3
:102D90006713A2CE81E08093D3038091D403813066
:102DA00009F09ACEFFCF81E08093D30395CE23968E
:102DB0000FB6F894DEBF0FBECDBFDF91CF911F914C
:102DC0000F91FF90EF90DF90CF90BF90AF909F90CA
:102DD0008F907F906F905F904F903F902F900895CD
:102DE000EF92FF921F93CF93DF93EC019093DE035A
:102DF0008093DD036091D6036623F1F010E00F2E7F
:102E0000FEEFEF2EF2E0FF2EF02D70E061507040EB
:102E1000812F90E0681B790B6E0D7F1D8C0F9D1F1D
:102E20000E94B511833019F080E090E00AC01F5F66
:102E30006091D603161748F381E08093DC0381E0AC
:102E400090E0DF91CF911F91FF90EF900895EF9266
:102E5000FF920F931F93CF93DF93CDB7DEB72297E7
:102E60000FB6F894DEBF0FBECDBF0E94BE0F7B0130
:102E70008C018091D8039091D903A091DA03B0918D
:102E8000DB03A8019701281B390B4A0B5B0B8091D0
:102E9000DC03813029F02155334C4040504020F173
:102EA0000E944B12882301F58091DD039091DE038F
:102EB0000E94F0168130C1F44091D603BE016F5FCD
:102EC0007F4F8EEF92E00E94601269817A8190E0DC
:102ED0000E943412E092D803F092D9030093DA03EF
:102EE0001093DB031092DC0322960FB6F894DEBF3A
:102EF0000FBECDBFDF91CF911F910F91FF90EF904B
:102F000008950F931F93182F062F0E94BE0F6093F2
:102F1000D8037093D9038093DA039093DB03109264
:102F2000DC031093D7030093D6030E94A01790935D
:102F3000DE038093DD030E94F0161F910F91089528
:102F40008091E3039091E40308958091F00390E071
:102F500008958091E20390E0089562EE73E080E0CE
:102F600090E00E94B5118330B9F460EF73E081E026
:102F700090E00E94B511833079F48091F0032091A4
:102F8000E203829FC001112424EF31E0281B390B9A
:102F90003093E4032093E30308950F931F93CF939B
:102FA000DF93CDB7DEB721970FB6F894DEBF0FBE23
:102FB000CDBF082F10E065EE73E0C80102960E94B5
:102FC000B511833089F566EE73E0C80103960E945F
:102FD000B511833049F5BE016F5F7F4FC80104967C
:102FE0000E94B511833001F5698170E080E090E0C6
:102FF00028EE33E040E050E00E9407196093E703B9
:103000007093E8038093E9039093EA038091E503CA
:103010008093DF030E94BE0F6093EC037093ED0377
:103020008093EE039093EF0321960FB6F894DEBFE2
:103030000FBECDBFDF91CF911F910F910895EF92F9
:10304000FF920F931F93CF93DF93CDB7DEB72197F6
:103050000FB6F894DEBF0FBECDBF6BEE73E082E01B
:1030600090E00E94B511833009F04DC060EE73E02E
:1030700083E090E00E94B511833009F044C0809154
:10308000EB03882319F41092E00308C09091E00349
:10309000981720F4992331F404E018C01092E0034B
:1030A00004E014C004E010E07E010894E11CF11C6F
:1030B000B701802F90E00E94B511833021F58981FE
:1030C000080F1F5F8091E003181790F3802F90E0A6
:1030D00061EE73E001960E94B5118330A1F48091F6
:1030E000E103813021F4802F0E94CD1702C00E949D
:1030F000C1000E94AD170E94A517182F0E94A917A2
:10310000612F0E94811721960FB6F894DEBF0FBE83
:10311000CDBFDF91CF911F910F91FF90EF90089558
:10312000CF92DF92EF92FF920F931F930E94BE0FF8
:103130006B017C018091EC039091ED03A091EE0373
:10314000B091EF03A7019601281B390B4A0B5B0BCB
:103150008091E7039091E803A091E903B091EA031D
:1031600082179307A407B50720F080912A038130C6
:10317000B9F50E944B12882399F50E94A5179091EA
:10318000DF03899F800111240E94A017800F911FE7
:103190000E94F016882321F18091DF03082F0F5F32
:1031A0000093DF030E94A917081760F4802F90E0B6
:1031B0002091E6034091E503240F312D311D821744
:1031C000930724F08091E5038093DF0310922A0394
:1031D000C092EC03D092ED03E092EE03F092EF0385
:1031E0001F910F91FF90EF90DF90CF9008950E9474
:1031F0009414813011F40E941F188091E1038130F2
:1032000019F40E94901808950E9470000895629F1A
:10321000D001739FF001829FE00DF11D649FE00DCE
:10322000F11D929FF00D839FF00D749FF00D659F2F
:10323000F00D9927729FB00DE11DF91F639FB00D2E
:10324000E11DF91FBD01CF0111240895AA1BBB1B6D
:1032500051E107C0AA1FBB1FA617B70710F0A61B96
:10326000B70B881F991F5A95A9F780959095BC01B7
:10327000CD01089597FB092E05260ED057FD04D0E9
:1032800014D00AD0001C38F4509540953095219503
:103290003F4F4F4F5F4F0895F6F79095809570958B
:1032A00061957F4F8F4F9F4F0895A1E21A2EAA1B61
:1032B000BB1BFD010DC0AA1FBB1FEE1FFF1FA217E6
:1032C000B307E407F50720F0A21BB30BE40BF50BE3
:1032D000661F771F881F991F1A9469F7609570956C
:1032E000809590959B01AC01BD01CF010895FFCF62
:1032F00032323232323232323232323205326432A9
:103300000500000000000000000000000103050AA5
:10331000141E2832646464646464646432281E1475
:103320000A0503010102040810204080010204087C
:1033300006470F43423FA33B683725353D321330E4
:10334000C52C3A2ADC27A62583238821A11FE01D4E
:10335000B41B9E1A1E19091862161D15EE13D312FE
:10336000C111C310D00FEC0E160E4C0D8F0CD80BE4
:103370002F0B8E0AF70969090000C00D910E6F0F1F
:103380005A1053115B1272139A14D4152017801817
:10339000F5190000BA1674153F141C130A12061111
:1033A00012102B0F510E830DC10C0A0C809F82202E
:1033B00082189B279B2731A41E842691273B9127A7
:1033C0008426842691273B9127992736309927997F
:1033D000273B319127992736309927393B3191275F
:1033E00091273130992799273B3393279327842EB0
:1033F000932F912F9B2F39992799273B3191279113
:1034000027319B279B2731A41E842691273B912798
:103410008426842691273B9127992736309927992E
:10342000273B31912799273630992799273B3191AE
:103430002791273130992799273B33932793278466
:103440002E932F912F9B2F39992799273B31912725
:103450009127319B279B2731A41E842691273B91DE
:10346000278426842691273B912799273630992750
:1034700099273B31912799273630992799273B3156
:10348000912791273130992799273B339327932709
:10349000842E932F912F9B2F39992799273B319178
:1034A00027912731809F822080268426A41E911791
:1034B000842693179B2633841690278426A41E9176
:1034C0001784267391273B31981790278426A41ED2
:1034D0009117842693179B273384168426A41E7184
:1034E0009B273936383634369417809F820C803EBD
:1034F0008B269427982F942F8B2698279427982FE4
:10350000942F8B2698279427982F942F81269427E1
:103510003894278B269427982F942F8B26982794BE
:1035200027982F942F8B2698279427982F942F8BAA
:10353000269827343098279827982798273B98274C
:103540009427982794279827942738942798279882
:10355000279827982798273B9827942798279427D8
:103560008B268B267400010204081020400D0A00EF
:103570005620303130310D0A0052200042003031E7
:1035800032333435363738394142434445462020BA
:10359000202020202020202020202020202020202B
:0235A0002020E9
:00000001FF
