:100000000C942A000C9447000C9447000C94470071
:100010000C9447000C9447000C9447000C94470044
:100020000C9447000C9447000C9447000C94F51472
:100030000C9447000C9447000C9447000C94470024
:100040000C9447000C9447000C9447000C947F01DB
:100050000C94470011241FBECFE5D4E0DEBFCDBF16
:1000600013E0A0E6B0E0EAE8F2E302C005900D92EA
:10007000A231B107D9F713E0A2E1B3E001C01D92AC
:10008000A53EB107E1F70E94E5100C9444190C94C9
:1000900000001092260391E090932503109228030C
:1000A00082E08093270310922A0384E0809329033F
:1000B00010922C0388E080932B03909322038FE00F
:1000C0008093390310923803109242031092240354
:1000D000109243031092230308950F931F93CF931D
:1000E000DF93929A80912303882309F473C0F894D4
:1000F00080914203813011F410924203789410925F
:1001000023038DED80933103809333038093350374
:10011000809337038FE080932F0310922E03C5E264
:10012000D3E071E0AEE2B3E08E01085F1F4F49817A
:1001300068814423C1F1862F809590912F038923F4
:1001400080932F03443679F17723D1F190912E03D8
:100150009417B1F420E030E00AC0252F30E0F90117
:10016000EE0FFF1FEA0FFB1F9081491761F4F901A1
:10017000EE0FFF1FEA0FFB1F8181862B818313C0C7
:1001800050E020E030E0491750F4F901EE0FFF1F76
:10019000EA0FFB1F818140836183492F682F5F5FD6
:1001A0005717D9F60DC02296C017D10709F0BFCF57
:1001B00070934403F89481E08093420378940AC0DA
:1001C000E72FF0E0EE0FFF1FEA0FFB1F4083618374
:1001D0007F5FE9CF9298DF91CF911F910F910895A2
:1001E00090E0880F991FFC01EA5DFC4F653608F02E
:1001F00064E684E6861B808381E080932303089570
:10020000CF93DF93909A80912403282F2F5F209320
:100210002403243618F01092240302C0222309F587
:1002200010924303809142038130B9F4109242034B
:100230003091440330932203332379F0AEE2B3E0EC
:10024000E8E3F3E020E09C91ED01898181839083D4
:100250002F5F129632962317B1F78091390388BB2E
:1002600018C03091430380912203381790F4832FF4
:1002700090E0880F991FFC01E85CFC4F80812817F3
:1002800040F088B39181892B88BB832F8F5F809347
:1002900043039098DF91CF910895109245031092F7
:1002A0004603109247031092480310924B0310929A
:1002B0004A031092490383E68CBF8AE083BF89B763
:1002C000826089BF83E88FBD89E18EBD089583E494
:1002D0008FBD089583E88FBD0895F894292F3327A3
:1002E0002BBD8ABD78940895F89478946091450365
:1002F00070914603809147039091480308951F929F
:100300000F920FB60F9211242F933F934F935F9349
:100310006F937F938F939F93AF93BF93EF93FF93CD
:100320008091450390914603A0914703B091480303
:100330000196A11DB11D8093450390934603A093A0
:100340004703B093480380914B038F5F80934B0327
:10035000823020F00E94000110924B0380914903EB
:1003600090914A03019690934A03809349038436FF
:10037000910550F00E94A5020E94E10110924A03EB
:10038000109249030E944713FF91EF91BF91AF91E3
:100390009F918F917F916F915F914F913F912F919D
:1003A0000F900FBE0F901F90189520E030E08091C5
:1003B0004C0390914D03892B11F021E030E0C901ED
:1003C000089580914C0390914D03009749F0019757
:1003D00090934D0380934C03892B11F40E946A0182
:1003E000089510924D0310924C030E946A010895E3
:1003F000CF93DF93EB016115710511F480E00FC01D
:1004000070934D0360934C030E946D01F894D09358
:100410004D03C0934C030E946701789481E090E003
:10042000DF91CF91089510924F0310924E030895DB
:10043000982FE62FF0E0EE0FFF1FE855FF4F0190D9
:10044000F081E02D883010F080E002C088E0891B48
:1004500002C0F695E7958A95E2F7CF010895282F17
:10046000E62FF0E0EE0FFF1FEE53FF4F80819181EA
:10047000283010F022E001C0265002C096958795E2
:100480002A95E2F708950F931F938C01FC012281B6
:1004900030E02F77307000243695279507943695F5
:1004A00027950794322F202D83818F73280F311DBC
:1004B000309356032093550340E050E060E67AEE17
:1004C00080E090E00E940719309354032093530377
:1004D000F801218130E0F901E873F070F595E795B6
:1004E000F595E795F595E795EB56FD4F808190E002
:1004F00090935203809351032770307030935803C8
:1005000020935703F894C801069690935A0380935A
:10051000590310925003F801848190E08F77907016
:100520000024969587950794969587950794982F1C
:10053000802D25812F73820F911D90934F038093FF
:100540004E0378941F910F9108950F931F93CF93AB
:10055000DF9380914E0390914F03892B09F458C08B
:1005600080915003882309F050C0A0915903B091A5
:100570005A032C912223CCF4ED01E9814E2F4770D0
:10058000F0E0E873F070F595E795F595E795F5954A
:10059000E795EB56FD4F6081322F3F70CD010296FB
:1005A00090935A03809359030CC040915703609174
:1005B0005103322F3F70CD01019690935A038093DF
:1005C000590370E080915303909154030E94F318F3
:1005D0006093500326FF05C0862F8695860F809373
:1005E00050030091500310E0632F842F0E942F02CC
:1005F000B8010E94F80180914E0390914F0301973A
:1006000090934F0380934E0303C081508093500317
:10061000DF91CF911F910F91089510925E031ABA46
:1006200008951F9389B3182F10950E947401AB0190
:1006300020915E03213041F12230E1F1112309F4D0
:1006400041C070935C0360935B0381E080935E0321
:1006500014FF05C080E180935D0320E034C015FFE6
:1006600005C080E280935D0320E02DC016FF05C029
:1006700080E480935D0320E026C011231CF580E810
:1006800080935D0320E01FC020915D03812F8223B2
:1006900069F080915B0390915C03481B590B495EA4
:1006A000534080F082E080935E030DC010925E03A1
:1006B00020E009C080915D03812321F410925E0344
:1006C00020E001C020E0822F90E01F91089508955E
:1006D000109277031092630310926703089581E0EC
:1006E0008093690308951092690308951092690335
:1006F000089510921D0310921C0381E090E09093E6
:100700001F0380931E03109221031092200308956B
:100710001092690308951092690308950E9474016C
:1007200060937D0370937E0380937F039093800397
:1007300008950F931F93CF93DF93EC010E947401F0
:10074000AB01BC012091650330916603C901A0E0B3
:10075000B0E0481759076A077B0748F08A019B01F8
:10076000081B190B2A0B3B0BD901C8010CC0C9018E
:1007700080959095A0E0B0E00196A11DB11D840F79
:10078000951FA61FB71F81519742A040B04018F196
:10079000CE01837090708230910579F0833091059D
:1007A00089F0019729F0A898A99AAE9AAF9A0EC03D
:1007B000A89AA998AE9AAF9A09C0A89AA99AAE9891
:1007C000AF9A04C0A89AA99AAE9AAF987894509319
:1007D000660340936503DF91CF911F910F910895B8
:1007E00010921B03109282031092830310928403D1
:1007F00010928503109278031092790310927A0375
:1008000010927B0380E090E00E9437180895CF9308
:10081000DF93CDB7DEB722970FB6F894DEBF0FBED9
:10082000CDBFBE016F5F7F4F8AEC90E00E940D1339
:10083000833089F4BE016E5F7F4F89EC90E00E94A7
:100840000D13833041F48981813019F40E948E03A5
:1008500002C00E94F00322960FB6F894DEBF0FBECE
:10086000CDBFDF91CF910895CF93DF93CDB7DEB7A2
:1008700024970FB6F894DEBF0FBECDBFBE016C5FEC
:100880007F4F8AEC90E00E940D13833009F0CAC0BC
:10089000BE016F5F7F4F8BEC90E00E940D138330A1
:1008A00009F0C0C0BE016E5F7F4F8CEC90E00E94EB
:1008B0000D13833009F0B6C0BE016D5F7F4F8DEC24
:1008C00090E00E940D13833009F0ACC02981809123
:1008D0006403821779F490916A038A81981751F41E
:1008E00090917C038B81981729F4909161038C81FE
:1008F000981799F120935F03209364038A81809372
:100900006A036B8160937C0370E080E090E028EEE6
:1009100033E040E050E00E94D41860936B03709382
:100920006C0380936D0390936E038C8180936103BD
:1009300081E0809368030E94740160937D0370934B
:100940007E0380937F039093800390915F0384E103
:10095000989FC00111240E9437180E94740160936F
:100960001603709317038093180390931903209133
:100970007D0330917E0340917F0350918003621B81
:10098000730B840B950B9B01AC018091610381304B
:1009900069F480916B0390916C03A0916D03B09109
:1009A0006E0382179307A407B50720F080916803B0
:1009B0008130C1F50E949D138823A1F580915F03CA
:1009C0008A3058F490E020916A0340916403240F28
:1009D000312D311D8217930724F080916403809399
:1009E0005F0390915F0384E1989FC00111240E94EE
:1009F00037188823B9F080915F038F5F80935F037E
:100A0000109268038091160390911703A091180328
:100A1000B091190380937D0390937E03A0937F038D
:100A2000B093800324960FB6F894DEBF0FBECDBFFF
:100A3000DF91CF910895CF93DF93CDB7DEB72197A4
:100A40000FB6F894DEBF0FBECDBFBE016F5F7F4F04
:100A500089EC90E00E940D13833019F00E94DC15A0
:100A60001AC089818A3008F01982998180911B030C
:100A7000981721F40E94D615813069F4998184E198
:100A8000989FC00111240E94371881E08093680369
:100A9000898180931B0321960FB6F894DEBF0FBEA9
:100AA000CDBFDF91CF910895CF93DF93CDB7DEB760
:100AB00022970FB6F894DEBF0FBECDBFBE016F5FA9
:100AC0007F4F8AEC90E00E940D13833089F4BE01C1
:100AD0006E5F7F4F89EC90E00E940D13833041F4EC
:100AE0008981813019F40E94340402C00E941B05E0
:100AF00022960FB6F894DEBF0FBECDBFDF91CF9127
:100B00000895EF92FF920F931F930E9474019B012F
:100B1000AC016093160370931703809318039093AE
:100B200019038091120390911303A0911403B091C3
:100B3000150379018A01E81AF90A0A0B1B0BD8017F
:100B4000C701E0927303F09274030093750310934E
:100B5000760381519742A040B04008F4CBC1209366
:100B600012033093130340931403509315038091A1
:100B70006903853009F4CFC0863090F4823009F4DF
:100B800067C0833030F4882309F1813009F0A9C1AE
:100B90003EC0833009F47DC0843009F0A2C19AC000
:100BA000883009F41BC1893038F4863009F4D4C088
:100BB000873009F096C1F1C08A3009F451C18A30FA
:100BC00008F42DC18B3009F08CC16BC160E080E06E
:100BD0000E94F00060E081E00E94F00060E082E0AE
:100BE0000E94F00060E083E00E94F00064E684E090
:100BF0000E94F00062E385E00E94F00060E086E081
:100C00000E94F00060E087E00E94F0006AC164E6A4
:100C100080E00E94F00060E081E00E94F00060E06F
:100C200082E00E94F00060E083E00E94F00064E651
:100C300084E00E94F00064E685E00E94F00060E03D
:100C400086E00E94F00060E087E00E94F00049C169
:100C500064E680E00E94F00064E681E00E94F0001B
:100C600060E082E00E94F00060E083E00E94F0001B
:100C700064E684E00E94F00064E685E00E94F000F3
:100C800060E086E00E94F00060E087E00E94F000F3
:100C900028C164E680E00E94F00064E681E00E94E2
:100CA000F00064E682E00E94F00060E083E00E94D1
:100CB000F00064E684E00E94F00064E685E00E94B3
:100CC000F00060E086E00E94F00060E087E00E94B3
:100CD000F00007C164E680E00E94F00064E681E075
:100CE0000E94F00064E682E00E94F00064E683E087
:100CF0000E94F00064E684E00E94F00064E685E073
:100D00000E94F00064E686E00E94F00060E087E068
:100D10000E94F000E6C060E080E00E94F00060E029
:100D200081E00E94F00060E082E00E94F00060E05C
:100D300083E00E94F00062E384E00E94F00064E639
:100D400085E00E94F00064E686E00E94F00064E620
:100D500087E00E94F000C5C064E680E00E94F000D9
:100D600064E681E00E94F00064E682E00E94F00008
:100D700064E683E00E94F00064E684E00E94F000F4
:100D800062E385E00E94F00060E086E00E94F000EF
:100D900064E687E00E94F000A4C060E080E00E946A
:100DA000F00060E081E00E94F00060E082E00E94DC
:100DB000F00060E083E00E94F00062E384E00E94C3
:100DC000F00064E685E00E94F00060E086E00E94AA
:100DD000F00060E087E00E94F00083C064E680E0FD
:100DE0000E94F00064E681E00E94F00064E682E088
:100DF0000E94F00064E683E00E94F00064E684E074
:100E00000E94F00062E385E00E94F00064E686E064
:100E10000E94F00060E087E00E94F00062C060E0A5
:100E200080E00E94F00060E081E00E94F00060E05D
:100E300082E00E94F00060E083E00E94F00062E344
:100E400084E00E94F00064E685E00E94F00064E621
:100E500086E00E94F00064E687E00E94F00041C056
:100E600064E680E00E94F00064E681E00E94F00009
:100E700064E682E00E94F00064E683E00E94F000F5
:100E800064E684E00E94F00062E385E00E94F000E6
:100E900060E086E00E94F00064E687E00E94F000D7
:100EA00020C064E680E00E94F00064E681E00E94D9
:100EB000F00064E682E00E94F00064E683E00E94B5
:100EC000F00062E384E00E94F00064E685E00E94A6
:100ED000F00060E086E00E94F00060E087E00E94A1
:100EE000F000809169038F5F809369038C3010F06C
:100EF000109269031F910F91FF90EF90089560E0A9
:100F000080E00E94F00060E081E00E94F00060E07C
:100F100082E00E94F00060E083E00E94F00060E068
:100F200084E00E94F00060E085E00E94F00060E054
:100F300086E00E94F00060E087E00E94F0000E94DE
:100F400074016093120370931303809314039093BE
:100F500015036093160370931703809318039093FF
:100F60001903109273031092740310927503109278
:100F70007603109269030895EF92FF920F931F93E7
:100F80000E9474019B01AC016093160370931703D8
:100F90008093180390931903809112039091130387
:100FA000A0911403B091150379018A01E81AF90A96
:100FB0000A0B1B0BD801C701E0927303F092740374
:100FC000009375031093760389589341A040B04075
:100FD00008F4CBC1209312033093130340931403FE
:100FE0005093150380916903853009F4CFC0863092
:100FF00090F4823009F467C0833030F4882309F11B
:10100000813009F0A9C13EC0833009F47DC084302D
:1010100009F0A2C19AC0883009F41BC1893038F4A4
:10102000863009F4D4C0873009F096C1F1C08A3007
:1010300009F451C18A3008F42DC18B3009F08CC1FC
:101040006BC160E080E00E94F00060E081E00E94FF
:10105000F00060E082E00E94F00060E083E00E9427
:10106000F00064E684E00E94F00062E385E00E9404
:10107000F00064E686E00E94F00060E087E00E94F5
:10108000F0006AC164E680E00E94F00060E081E068
:101090000E94F00060E082E00E94F00060E083E0E7
:1010A0000E94F00062E384E00E94F00064E685E0C4
:1010B0000E94F00060E086E00E94F00064E687E0B5
:1010C0000E94F00049C160E080E00E94F00060E012
:1010D00081E00E94F00060E082E00E94F00060E0A9
:1010E00083E00E94F00064E684E00E94F00062E386
:1010F00085E00E94F00064E686E00E94F00060E077
:1011000087E00E94F00028C164E680E00E94F000C1
:1011100064E681E00E94F00060E082E00E94F0005E
:1011200060E083E00E94F00062E384E00E94F0004F
:1011300064E685E00E94F00060E086E00E94F00036
:1011400064E687E00E94F00007C160E080E00E9452
:10115000F00060E081E00E94F00060E082E00E9428
:10116000F00060E083E00E94F00064E684E00E940A
:10117000F00062E385E00E94F00064E686E00E94F1
:10118000F00060E087E00E94F000E6C064E680E0E6
:101190000E94F00064E681E00E94F00064E682E0D4
:1011A0000E94F00060E083E00E94F00062E384E0CF
:1011B0000E94F00064E685E00E94F00060E086E0B6
:1011C0000E94F00064E687E00E94F000C5C060E085
:1011D00080E00E94F00060E081E00E94F00060E0AA
:1011E00082E00E94F00060E083E00E94F00064E68C
:1011F00084E00E94F00062E385E00E94F00064E673
:1012000086E00E94F00060E087E00E94F000A4C049
:1012100064E680E00E94F00064E681E00E94F00055
:1012200064E682E00E94F00064E683E00E94F00041
:1012300062E384E00E94F00064E685E00E94F00032
:1012400060E086E00E94F00064E687E00E94F00023
:1012500083C060E080E00E94F00060E081E00E94D6
:10126000F00060E082E00E94F00060E083E00E9415
:10127000F00064E684E00E94F00062E385E00E94F2
:10128000F00064E686E00E94F00060E087E00E94E3
:10129000F00062C064E680E00E94F00064E681E055
:1012A0000E94F00064E682E00E94F00064E683E0C1
:1012B0000E94F00062E384E00E94F00064E685E0B2
:1012C0000E94F00060E086E00E94F00064E687E0A3
:1012D0000E94F00041C060E080E00E94F00060E009
:1012E00081E00E94F00060E082E00E94F00060E097
:1012F00083E00E94F00064E684E00E94F00062E374
:1013000085E00E94F00064E686E00E94F00060E064
:1013100087E00E94F00020C064E680E00E94F000B8
:1013200064E681E00E94F00064E682E00E94F00042
:1013300064E683E00E94F00062E384E00E94F00033
:1013400064E685E00E94F00060E086E00E94F00024
:1013500064E687E00E94F000809169038F5F8093CC
:1013600069038C3010F0109269031F910F91FF9068
:10137000EF90089560E080E00E94F00060E081E07E
:101380000E94F00060E082E00E94F00060E083E0F4
:101390000E94F00060E084E00E94F00060E085E0E0
:1013A0000E94F00060E086E00E94F00060E087E0CC
:1013B0000E94F0000E947401609312037093130363
:1013C000809314039093150360931603709317038F
:1013D000809318039093190310927303109274036F
:1013E0001092750310927603109269030895EF929C
:1013F000FF920F931F930E9474019B01AC016093B5
:101400001603709317038093180390931903809128
:10141000120390911303A0911403B0911503790165
:101420008A01E81AF90A0A0B1B0BD801C701E092DE
:101430007303F09274030093750310937603855C35
:101440009940A040B04008F479C020931203309333
:10145000130340931403509315038091690388305C
:1014600071F1893070F48530D9F0863020F4843001
:1014700009F05FC010C08630C1F0873009F059C054
:1014800019C08A3031F18A30F8F08B3039F18C3064
:1014900009F04FC028C064E680E00E94F00049C017
:1014A00064E681E00E94F00044C064E682E00E94AD
:1014B000F0003FC064E683E00E94F0003AC064E6BA
:1014C00084E00E94F00035C064E685E00E94F000F0
:1014D00030C064E686E00E94F0002BC064E687E03E
:1014E0000E94F00026C060E080E00E94F00060E012
:1014F00081E00E94F00060E082E00E94F00060E085
:1015000083E00E94F00060E084E00E94F00060E070
:1015100085E00E94F00060E086E00E94F00060E05C
:1015200087E00E94F000A89AA99AAE9AAF9A10920A
:101530006203809169038F5F809369031F910F910C
:10154000FF90EF90089560E080E00E94F00060E07E
:1015500081E00E94F00060E082E00E94F00060E024
:1015600083E00E94F00060E084E00E94F00060E010
:1015700085E00E94F00060E086E00E94F00060E0FC
:1015800087E00E94F000A898A998AE98AF980E94B2
:101590007401609312037093130380931403909368
:1015A00015036093160370931703809318039093A9
:1015B0001903109273031092740310927503109222
:1015C0007603109269030895EF92FF920F931F9391
:1015D000CF93DF930E9474019B01AC0160931603CB
:1015E000709317038093180390931903809112034B
:1015F00090911303A0911403B091150379018A010E
:10160000E81AF90A0A0B1B0BD801C701E092730311
:10161000F09274030093750310937603895E9340F0
:10162000A040B04038F1209312033093130340934D
:10163000140350931503C0E0D0E001EB12E09C2F9F
:10164000809169038C0F803108F08051F801E80F18
:10165000F11D6081892F0E94F0002196C430D105D0
:1016600071F7809169038F5F80936903803110F077
:1016700010926903DF91CF911F910F91FF90EF902E
:101680000895EF92FF920F931F93CF93DF930E94E1
:1016900074019B01AC016093160370931703809350
:1016A0001803909319038091120390911303A09152
:1016B0001403B091150379018A01E81AF90A0A0B9B
:1016C0001B0BD801C701E0927303F09274030093DF
:1016D000750310937603895E9340A040B04028F1D3
:1016E0002093120330931303409314035093150374
:1016F000C0E0D0E009EA12E0809169038C0F8430E9
:1017000008F08450FE01E00FF11F60810E94F0009C
:101710002196C430D10581F7809169038F5F809352
:101720006903843010F010926903DF91CF911F910B
:101730000F91FF90EF900895EF92FF920F931F93F8
:101740000E9474019B01AC01609316037093170310
:1017500080931803909319038091120390911303BF
:10176000A0911403B091150379018A01E81AF90ACE
:101770000A0B1B0BD801C701E0927303F0927403AC
:101780000093750310937603895E9340A040B040A8
:1017900008F414C3209312033093130340931403EB
:1017A0005093150380911E0390911F03019791F4AC
:1017B00080912003909121038436910530F40596A1
:1017C000909321038093200327C010921F0310924F
:1017D0001E0322C08091200390912103009731F0D5
:1017E0000597909321038093200316C081E090E039
:1017F00090931F0380931E0380911C0390911D03FF
:10180000019690931D0380931C03049728F0109277
:101810001D0310921C030FC080911C0390911D03A7
:101820008230910509F469C18330910509F416C22B
:10183000019709F4B1C080919D0290E020912003AE
:1018400030912103AC01429FC001439F900D529FF4
:10185000900D112464E670E00E94F31880E00E946D
:10186000F00080919E0290E02091200330912103AE
:101870007C01E29EC001E39E900DF29E900D11242A
:1018800064E670E00E94F31881E00E94F00080910D
:101890009F0290E020912003309121038C01029F50
:1018A000C001039F900D129F900D112464E670E01B
:1018B0000E94F31882E00E94F00080919D0290E067
:1018C0002091200330912103AC01429FC001439F2E
:1018D000900D529F900D112464E670E00E94F31861
:1018E00083E00E94F00080919E0290E0209120030E
:1018F000309121037C01E29EC001E39E900DF29E97
:10190000900D112464E670E00E94F31884E00E94B8
:10191000F00080919F0290E02091200330912103FC
:101920008C01029FC001039F900D129F900D112406
:1019300064E670E00E94F31885E00E94F000809158
:101940009D0290E02091200330912103AC01429F41
:10195000C001439F900D529F900D112464E670E0EA
:101960000E94F31886E00E94F00080919E0290E0B1
:1019700020912003309121037C01E29EC001E39E6F
:10198000900DF29E900D112464E670E00E94F31811
:1019900087E00E94F00012C28091A00290E02091A6
:1019A0002003309121038C01029FC001039F900D01
:1019B000129F900D112464E670E00E94F31880E0FD
:1019C0000E94F0008091A10290E0209120033091CC
:1019D0002103AC01429FC001439F900D529F900D87
:1019E000112464E670E00E94F31881E00E94F00088
:1019F0008091A20290E020912003309121037C018C
:101A0000E29EC001E39E900DF29E900D112464E6CB
:101A100070E00E94F31882E00E94F0008091A00222
:101A200090E020912003309121038C01029FC0019E
:101A3000039F900D129F900D112464E670E00E94A8
:101A4000F31883E00E94F0008091A10290E02091C1
:101A5000200330912103AC01429FC001439F900DB0
:101A6000529F900D112464E670E00E94F31884E008
:101A70000E94F0008091A20290E02091200330911A
:101A800021037C01E29EC001E39E900DF29E900D29
:101A9000112464E670E00E94F31885E00E94F000D3
:101AA0008091A00290E020912003309121038C01CD
:101AB000029FC001039F900D129F900D112464E6B8
:101AC00070E00E94F31886E00E94F0008091A1026D
:101AD00090E02091200330912103AC01429FC0018E
:101AE000439F900D529F900D112464E670E00E9478
:101AF000F31887E00E94F00061C18091A30290E09A
:101B000020912003309121037C01E29EC001E39EDD
:101B1000900DF29E900D112464E670E00E94F3187F
:101B200080E00E94F0008091A40290E020912003C8
:101B3000309121038C01029FC001039F900D129FE1
:101B4000900D112464E670E00E94F31881E00E9479
:101B5000F0008091A50290E02091200330912103B4
:101B6000AC01429FC001439F900D529F900D1124E4
:101B700064E670E00E94F31882E00E94F000809119
:101B8000A30290E020912003309121037C01E29E8A
:101B9000C001E39E900DF29E900D112464E670E06A
:101BA0000E94F31883E00E94F0008091A40290E06C
:101BB00020912003309121038C01029FC001039FDB
:101BC000900D129F900D112464E670E00E94F318AE
:101BD00084E00E94F0008091A50290E02091200313
:101BE00030912103AC01429FC001439F900D529F51
:101BF000900D112464E670E00E94F31885E00E94C5
:101C0000F0008091A30290E0209120033091210305
:101C10007C01E29EC001E39E900DF29E900D112486
:101C200064E670E00E94F31886E00E94F000809164
:101C3000A40290E020912003309121038C01029FA7
:101C4000C001039F900D129F900D112464E670E077
:101C50000E94F31887E00E94F000B0C08091A602B5
:101C600090E02091200330912103AC01429FC001FC
:101C7000439F900D529F900D112464E670E00E94E6
:101C8000F31880E00E94F0008091A70290E020917C
:101C90002003309121037C01E29EC001E39E900D60
:101CA000F29E900D112464E670E00E94F31881E02A
:101CB0000E94F0008091A80290E0209120033091D2
:101CC00021038C01029FC001039F900D129F900D74
:101CD000112464E670E00E94F31882E00E94F00094
:101CE0008091A60290E02091200330912103AC0165
:101CF000429FC001439F900D529F900D112464E6B6
:101D000070E00E94F31883E00E94F0008091A70227
:101D100090E020912003309121037C01E29EC001DC
:101D2000E39E900DF29E900D112464E670E00E94F7
:101D3000F31884E00E94F0008091A80290E02091C6
:101D40002003309121038C01029FC001039F900D5D
:101D5000129F900D112464E670E00E94F31885E054
:101D60000E94F0008091A60290E020912003309123
:101D70002103AC01429FC001439F900D529F900DE3
:101D8000112464E670E00E94F31886E00E94F000DF
:101D90008091A70290E020912003309121037C01E3
:101DA000E29EC001E39E900DF29E900D112464E628
:101DB00070E00E94F31887E00E94F0001F910F91DD
:101DC000FF90EF900895EF92FF920F931F93CF93A0
:101DD000DF930E9474019B01AC0160931603709322
:101DE0001703809318039093190380911203909125
:101DF0001303A0911403B091150379018A01E81A25
:101E0000F90A0A0B1B0BD801C701E0927303F09289
:101E10007403009375031093760389589341A0408F
:101E2000B04020F120931203309313034093140326
:101E300050931503C0E0D0E0809169038C1729F41A
:101E400064E68C2F0E94F00004C060E08C2F0E949A
:101E5000F0002196C430D10579F7809169038F5F36
:101E600080936903843010F010926903DF91CF9161
:101E70001F910F91FF90EF900895EF92FF920F93B3
:101E80001F930E9474019B01AC0160931603709331
:101E90001703809318039093190380911203909174
:101EA0001303A0911403B091150379018A01E81A74
:101EB000F90A0A0B1B0BD801C701E0927303F092D9
:101EC0007403009375031093760389589341A040DF
:101ED000B04008F4E8C020931203309313034093FA
:101EE00014035093150380916903833009F470C083
:101EF000843028F4813051F1823039F448C0843084
:101F000009F487C0853009F4A5C064E680E00E942A
:101F1000F00060E081E00E94F00060E082E00E945A
:101F2000F00064E683E00E94F00060E084E00E943C
:101F3000F00060E085E00E94F00064E686E00E9428
:101F4000F00060E087E00E94F000A4C064E680E05A
:101F50000E94F00064E681E00E94F00060E082E010
:101F60000E94F00064E683E00E94F00064E684E0F2
:101F70000E94F00060E085E00E94F00064E686E0E8
:101F80000E94F00064E687E00E94F00083C060E0F9
:101F900080E00E94F00064E681E00E94F00060E0D2
:101FA00082E00E94F00060E083E00E94F00064E6BE
:101FB00084E00E94F00060E085E00E94F00060E0B4
:101FC00086E00E94F00064E687E00E94F00062C0B4
:101FD00060E080E00E94F00064E681E00E94F00092
:101FE00064E682E00E94F00060E083E00E94F0007E
:101FF00064E684E00E94F00064E685E00E94F00060
:1020000060E086E00E94F00064E687E00E94F00055
:1020100041C060E080E00E94F00060E081E00E944A
:10202000F00064E682E00E94F00060E083E00E943D
:10203000F00060E084E00E94F00064E685E00E9429
:10204000F00060E086E00E94F00060E087E00E941F
:10205000F00020C064E680E00E94F00060E081E0D3
:102060000E94F00064E682E00E94F00064E683E0F3
:102070000E94F00060E084E00E94F00064E685E0E9
:102080000E94F00064E686E00E94F00060E087E0D5
:102090000E94F000809169038F5F8093690386300E
:1020A00010F0109269031F910F91FF90EF90089527
:1020B000EF92FF920F931F930E9474019B01AC015A
:1020C000609316037093170380931803909319037A
:1020D0008091120390911303A0911403B091150302
:1020E00079018A01E81AF90A0A0B1B0BD801C7010A
:1020F000E0927303F09274030093750310937603D8
:1021000089589341A040B04008F45AC0209312036C
:102110003093130340931403509315038091690384
:10212000813061F160919D0280E00E94F000609139
:102130009E0281E00E94F00060919F0282E00E9476
:10214000F00060919D0283E00E94F00060919E0289
:1021500084E00E94F00060919F0285E00E94F00000
:1021600060919D0286E00E94F00060919E0287E0EF
:102170000E94F00081E08093690322C060E080E06B
:102180000E94F00060E081E00E94F00060E082E0E8
:102190000E94F00060E083E00E94F00060E084E0D4
:1021A0000E94F00060E085E00E94F00060E086E0C0
:1021B0000E94F00060E087E00E94F0001092690346
:1021C0001F910F91FF90EF9008954F925F926F9241
:1021D0007F928F929F92AF92BF92CF92DF92FF92A7
:1021E0000F931F93CF93DF93CDB7DEB721970FB631
:1021F000F894DEBF0FBECDBF8FEF87BB88BB8CEFDF
:1022000081BB909883EC84BBA898A998AE98AF98AE
:102210000E944D010E94F1010E9413020E94490098
:102220000E940D030E9409130E94C0150E943213E0
:102230000E9407040E94BF180E948914789462E6E5
:1022400073E088EC90E00E940D13833009F0FFCF1B
:1022500080916203893010F0109262038AE08093CB
:1022600081038BE081BDFF2400E00F2EF0E6CF2E2E
:10227000F0E0DF2EF02D0F2EF4EDAF2EF1E0BF2EAB
:10228000F02D0F2EFAE18F2EF2E09F2EF02D0F2E63
:10229000FCED6F2EF0E07F2EF02D2E010894411CF6
:1022A000511CA8950E941103182F0E9468160E94C5
:1022B00054050E946718103111F01032E9F4EF2D27
:1022C000F0E0EE0FFF1FEC0DFD1D64EF71E080816B
:1022D00091810E94F801F3948BE08F1520F40F2E6A
:1022E000FBE0FF2EF02D809162038F5F80936203ED
:1022F000883010F0109262031034D1F4EF2DF0E02A
:10230000EE0FFF1FEC0DFD1D6AEF70E080819181E3
:102310000E94F801F110FA9480916203882319F465
:1023200088E080936203809162038150809362030E
:102330001038A1F4013049F0023061F0C3010E946D
:1023400043020F5F033048F409C0C5010E944302F5
:1023500002E004C0C4010E94430200E090916203C5
:1023600080918103981799F1943011F1953048F4D8
:102370009130A9F0913080F09230A1F0933019F5AE
:1023800014C09630D9F09630B0F09730D1F0983034
:10239000D1F40E94A30A17C00E94BA0914C00E9477
:1023A0007F0711C00E946F030EC00E9473030BC011
:1023B0000E94760308C00E94790305C00E9488032A
:1023C00002C00E948B038091620380938103B2015B
:1023D00088EC90E00E940D13823069F060916203F6
:1023E0008981681741F088EC90E00E941B138330CC
:1023F00009F0FFCF00000E946D00809162038830D9
:10240000E1F090E00E94990380916203843021F111
:10241000853050F48130B9F0813090F08230B1F0E5
:10242000833009F03ECF15C08630E1F08630B8F039
:102430008730D9F0883009F034CF0E94F70931CFC6
:102440000E94BC072ECF0E9481052BCF0E945810FE
:1024500028CF0E943D0F25CF0E94E30E22CF0E947D
:102460009C0B1FCF0E94410B1CCF0E94E40A19CF86
:10247000EF92FF920F931F930E9474019B01AC0196
:1024800060931603709317038093180390931903B6
:102490008091120390911303A0911403B09115033E
:1024A00079018A01E81AF90A0A0B1B0BD801C70146
:1024B000E0927303F0927403009375031093760314
:1024C000895E9340A040B04008F452C0F894979BB6
:1024D00002C0979801C0979A789420931203309382
:1024E000130340931403509315036091770380E026
:1024F0000E94F0006091630381E00E94F00060910F
:10250000670382E00E94F0006091770383E00E94FD
:10251000F0006091630384E00E94F0006091670323
:1025200085E00E94F0006091770386E00E94F00051
:102530006091630387E00E94F000809167038F5FE2
:10254000809367038536A0F010926703809177032C
:102550008F5F80937703853658F0109277038091D0
:1025600063038F5F80936303853610F010926303DB
:102570001F910F91FF90EF9008950E947401609356
:1025800016037093170380931803909319032091F7
:102590001203309113034091140350911503621BF1
:1025A000730B840B950B6093730370937403809388
:1025B000750390937603615177428040904040F1DB
:1025C00060919D0280E00E94F00060919E0281E097
:1025D0000E94F00060919F0282E00E94F0006091F2
:1025E0009D0283E00E94F00060919E0284E00E94C0
:1025F000F00060919F0285E00E94F00060919D02D2
:1026000086E00E94F00060919E0287E00E94F00048
:10261000089583E0809386030895FB01E19B03C046
:1026200082E090E008959FBB8EBBE09A8DB38083DB
:1026300083E090E00895E19B03C082E090E008957C
:102640009FBB8EBB6DBBF894E29AE19A789483E0CD
:1026500090E00895E19B03C082E090E0089583E05C
:1026600090E0089587E18DB9BC9ABF9AC49AC79A41
:1026700080E0A8958F5F8436E1F710928A0310926C
:10268000890310928B03709887E58DB90895809126
:102690008B03813009F52091890330918A0321153C
:1026A000310531F4779B31C010928B03C49A0895A1
:1026B000779B2BC0C498E0918703F09188038191A8
:1026C0008FB9F0938803E0938703C9010197909332
:1026D0008A038093890308958230B9F4C498E09105
:1026E0008703F091880381918FB9F0938803E09379
:1026F00087038091890390918A03019790938A03BD
:102700008093890381E080938B0308959C018091DD
:102710008B03882389F42115310571F0611571054A
:1027200059F0709388036093870330938A03209352
:10273000890382E080938B03089580918B0390E05E
:1027400008950F92EF93FF93E0918C03F0918D0326
:10275000C895E0918E03F0918F030082FF91EF9175
:102760000F9008958F929F92AF92BF92CF92DF9277
:10277000FF920F931F93CF93DF938C014B01FF24A4
:102780000F2EF2E1AF2EF8E2BF2EF02D0F2EF0E962
:10279000CF2EF3E0DF2EF02D26C0F80180818038A7
:1027A00008F08FE790E0880F991F8C0F9D1F8A0D0E
:1027B0009B1D90938D0380938C038F2D8C0F96011E
:1027C000280F311D30938F0320938E030E94A11395
:1027D0002196C230D10509F732E0F30E88E2F816EF
:1027E00029F00F5F1F4FC0E0D0E0D7CF80E993E022
:1027F000F4019183808388E290E0DF91CF911F9173
:102800000F91FF90DF90CF90BF90AF909F908F90EF
:1028100008950000EEEEDDDDBBB7777BF7F4FF8BAC
:102820008F7F78FF2AB23AE22FA3EBA6F72BEBA219
:10283000FBE2FFFFFFFFFFFFFFFFFFFFFFFFFFFFC9
:10284000FFFF633B7D79632272FFFDE5673BD75F46
:10285000F57DFFFFBEFFF7F7000023322552A11FD1
:10286000FDFFDDFFFFDD5559777BFFDF7FFBFF2B92
:10287000FDDFA886BEFF6AAA2ABE3EF3CBB22BA21A
:10288000BAFE2AA22AB2F77FF7DFDDFF6FBBFFDDBA
:102890007A7F62A63AE2223EEBA6A23E6BA2FBE260
:1028A0002BA63EE3F77FAEAFDDE3EFA7BCE59EE5E9
:1028B000AAA67AE28AA65AE22BB2F37EAEA7FDC799
:1028C0009EC7DDDDFD7DE99EE37FDFFDF73EF8DF9E
:1028D000EFBFFFFD3AE2223EEBA6A23E6BA2FBE277
:1028E0002BA63EE3F77FAEAFDDE3EFA7BCE59EE5A9
:1028F000AAA67AE28AB65AE22BB2F37EAEA7FDC749
:102900009EC7DDDDFD6DE99EE37BF77F773E76EBCD
:102910002A2610BC83E389B980E48BB91AB88EE803
:1029200080BD1092C2031092B9031092B80388E9D7
:102930008AB908958BB190E0969587959295829586
:102940008F7089279F70892781709070089590E417
:102950009BB98CB90895CF93DF93EC019091B803A4
:102960008091B903891719F480E090E018C0E92F2D
:10297000F0E0DF01A654BC4F8C918883E254FC4FF9
:102980008081FB018083F894892F8F5F8093B80347
:10299000843010F01092B803789481E090E0DF91D9
:1029A000CF910895CF93DF93CDB7DEB722970FB6BF
:1029B000F894DEBF0FBECDBF0E949A14813061F43F
:1029C000BE016E5F7F4FCE0101960E94AB14813035
:1029D00019F489810E94A71422960FB6F894DEBFDD
:1029E0000FBECDBFDF91CF9108951F920F920FB60A
:1029F0000F9211242F933F938F939F93AF93BF9385
:102A0000EF93FF933CB18BB18C719091C203282F4F
:102A1000292B2093C203E091B9039E2F9F5F94302E
:102A200008F090E08091B803981769F0F0E0DF01BA
:102A3000A654BC4F3C93E254FC4F20839093B903BF
:102A40001092C20304C0822F81608093C203FF9161
:102A5000EF91BF91AF919F918F913F912F910F90E7
:102A60000FBE0F901F901895DC01FB018081882319
:102A700029F08D93319680818823D9F71C9208958F
:102A8000FC018081882321F0319680818823E1F741
:102A9000CF010E9434150895FC01DA0111961C92B1
:102AA0001E92662359F1808180538A3020F540E0E0
:102AB00005C03196808180538A30E8F48D919C91D5
:102AC00011979C01220F331F880F991F880F991FA0
:102AD000880F991F280F391F11963C932E938081E0
:102AE00090E0C097820F931F11969C938E934F5F37
:102AF0004617F9F603C080E090E0089581E090E089
:102B00000895FC01DA011C926623F9F030E020817F
:102B1000922F90539A3060F0822F8156863010F4B5
:102B2000975206C0822F8154863060F4922F9753BB
:102B30008C918295807F890F8C933F5F361729F0A7
:102B40003196E5CF80E090E0089581E090E008952F
:102B5000CF93DF939C01862F82958F70AEEEB2E00B
:102B6000FD01E80FF11D8081F90181936F70A60FBF
:102B7000B11D8C91E90189831182DF91CF91089574
:102B800081E08093DA031092CD031092C403109277
:102B9000C9031092C8031092CA038093C70310920E
:102BA000DD031092DC031092DB0308958091C703CC
:102BB0001092C70390E0089581E08093C7030895C1
:102BC0006F927F928F929F92BF92CF92DF92EF92FD
:102BD000FF920F931F93CF93DF93CDB7DEB722976A
:102BE0000FB6F894DEBF0FBECDBF8C01B62E3A01F2
:102BF000CC24DD246894C1F8CC0EDD1E7E0108943F
:102C0000E11CF11C0F2EFEEF8F2EFFEF9F2EF02DFB
:102C1000880E991E40C08091CD03F801E80FF11D88
:102C2000898180838091C4039A81892B8093C40316
:102C30004091CD03942F9F5F9093CD03923010F17C
:102C4000292F30E0F901E00FF11F319780818A30A0
:102C5000C9F4F901E80DF91D80818D3099F4842FB4
:102C60008150D3018C9310821092CD038091C403C4
:102C7000882319F481E090E017C01092C40382E029
:102C800090E012C09B1538F01092CD031092C4034F
:102C900082E090E009C0B601C7010E94AB14813008
:102CA00009F4B9CF83E090E022960FB6F894DEBF26
:102CB0000FBECDBFDF91CF911F910F91FF90EF908D
:102CC000DF90CF90BF909F908F907F906F900895EE
:102CD0002F923F924F925F926F927F928F929F922C
:102CE000AF92BF92CF92DF92EF92FF920F931F931A
:102CF000CF93DF93CDB7DEB723970FB6F894DEBF3F
:102D00000FBECDBF0F2EFDEDEF2EF2E0FF2EF02D0A
:102D10000EEC13E00F2EFCEECF2EF2E0DF2EF02DA6
:102D20000F2EFAECAF2EF3E0BF2EF02D0F2EF9EEA2
:102D30008F2EF2E09F2EF02D66247724689461F8A0
:102D4000600E711E0F2EF0EE4F2EF2E05F2EF02D72
:102D500022243324689421F82C0E3D1E0E94740115
:102D60002091CB033091CC03621B730B8091DD0368
:102D7000813039F4695E734020F08093C70310926C
:102D8000DD038091DA03853009F4CBC0863078F416
:102D90008230B9F1833020F4813009F04BC11AC080
:102DA000833009F46EC0843009F044C195C0883086
:102DB00009F416C1893038F4863009F4D7C0873059
:102DC00009F038C109C1893009F412C18A3009F00B
:102DD00031C1F0C043EC53E06CE0C8010E94E01543
:102DE000833009F42BC1823041F4B701C8010E943D
:102DF000341588E08093DA03B1CF82E08093DA0360
:102E0000ADCF8091CE03873501F1883560F48234EF
:102E100061F1833418F4813461F513C08235C9F04F
:102E2000863539F51AC08237A1F0833728F4813608
:102E300041F08236F1F419C0863779F08737C9F44A
:102E400004C083E08093DA0389CF84E08093DA03BF
:102E500085CF86E08093DA0381CFB201C8010E945A
:102E6000341588E08093DA0379CF8AE08093DA031F
:102E700075CFB701C8010E94341588E08093DA034A
:102E80006DCF8091CF038032F9F4A10163E080ED32
:102E900093E00E944C15813079F48A819B81909354
:102EA000C9038093C803B7018EEC93E00E944015DC
:102EB00088E08093DA0352CFB701C8010E9434152D
:102EC00088E08093DA034ACFB701C8010E94341525
:102ED00088E08093DA0342CF8091CF038032C9F437
:102EE000AE014F5F5F4F62E080ED93E00E9481157D
:102EF000813039F489818093CA0385E08093DA03B5
:102F00002DCFB701C8010E94341588E08093DA0301
:102F100025CFB701C8010E94341588E08093DA03F9
:102F20001DCF6091CA038091C8039091C9030E948C
:102F30001B13833009F082C08091C8039091C903AC
:102F400001969093C9038093C803B701C8010E94FA
:102F5000401588E08093DA0381E08093DD030E94CE
:102F600074017093CC036093CB03F8CEB5018091CC
:102F7000C8039091C9030E940D13833009F05EC00D
:102F80008091C8039091C90301969093C9038093DF
:102F9000C803B401C8010E9434156091CA03C3017B
:102FA0000E94A815B701C8010E94401588E08093CF
:102FB000DA03D4CEB601C8010E943415B701C801A6
:102FC0000E94401588E08093DA0381E090E09093BE
:102FD000DC038093DB03C2CE81E08093DA03BECEB4
:102FE0001093C6030093C50389E08093DA03B6CE3D
:102FF000E091C503F091C6038081882381F00E948F
:103000009A148130D9F4E091C503F091C6038191FF
:10301000F093C603E093C5030E94A7149FCE81E0FE
:103020008093DA038091DB039091DC03019709F030
:1030300095CEFFCF81E08093DA0390CE23960FB632
:10304000F894DEBF0FBECDBFDF91CF911F910F91DE
:10305000FF90EF90DF90CF90BF90AF909F908F90B8
:103060007F906F905F904F903F902F900895EF92D8
:10307000FF920F931F93CF93DF938C019093E40300
:103080008093E303C0E0D0E00F2EF1E1EF2EF3E0F8
:10309000FF2EF02DB7016C1B7D0BCE01800F911F11
:1030A0000E940D13833019F080E090E009C0219652
:1030B000C431D10579F781E08093E20381E090E0AB
:1030C000DF91CF911F910F91FF90EF900895EF92B4
:1030D000FF920F931F93CF93DF93CDB7DEB7229765
:1030E0000FB6F894DEBF0FBECDBF0E9474017B0106
:1030F0008C018091DE039091DF03A091E003B091F9
:10310000E103A8019701281B390B4A0B5B0B809147
:10311000E203813029F02155334C4040504010F1FA
:103120000E949D138823F1F48091E3039091E403BE
:103130000E9437188130B1F4BE016F5F7F4F8EEF70
:1031400092E00E94B21369817A8190E00E94861316
:10315000E092DE03F092DF030093E0031093E103BB
:103160001092E20322960FB6F894DEBF0FBECDBFD9
:10317000DF91CF911F910F91FF90EF9008950E94E2
:1031800074016093DE037093DF038093E0039093F8
:10319000E1031092E2031092E4031092E30380E053
:1031A00090E00E9437180895629FD001739FF0014C
:1031B000829FE00DF11D649FE00DF11D929FF00DC7
:1031C000839FF00D749FF00D659FF00D9927729FFE
:1031D000B00DE11DF91F639FB00DE11DF91FBD0189
:1031E000CF0111240895AA1BBB1B51E107C0AA1FE0
:1031F000BB1FA617B70710F0A61BB70B881F991F98
:103200005A95A9F780959095BC01CD01089597FB3B
:10321000092E05260ED057FD04D014D00AD0001C6C
:1032200038F450954095309521953F4F4F4F5F4F63
:103230000895F6F790958095709561957F4F8F4F23
:103240009F4F0895A1E21A2EAA1BBB1BFD010DC0C2
:10325000AA1FBB1FEE1FFF1FA217B307E407F50746
:1032600020F0A21BB30BE40BF50B661F771F881F22
:10327000991F1A9469F760957095809590959B01B8
:0A328000AC01BD01CF010895FFCF9E
:10328A0006470F43423FA33B683725353D3213308B
:10329A00C52C3A2ADC27A62583238821A11FE01DF5
:1032AA00B41B9E1A1E19091862161D15EE13D312A5
:1032BA00C111C310D00FEC0E160E4C0D8F0CD80B8B
:1032CA002F0B8E0AF70969090000C00D910E6F0FC6
:1032DA005A1053115B1272139A14D41520178018BE
:1032EA00F5190000BA1674153F141C130A120611B8
:1032FA0012102B0F510E830DC10C0A0C809F8220D5
:10330A0082189B279B2731A41E842691273B91274D
:10331A008426842691273B91279927363099279925
:10332A00273B319127992736309927393B31912705
:10333A0091273130992799273B3393279327842E56
:10334A00932F912F9B2F39992799273B31912791B9
:10335A0027319B279B2731A41E842691273B91273F
:10336A008426842691273B912799273630992799D5
:10337A00273B31912799273630992799273B319155
:10338A002791273130992799273B3393279327840D
:10339A002E932F912F9B2F39992799273B319127CC
:1033AA009127319B279B2731A41E842691273B9185
:1033BA00278426842691273B9127992736309927F7
:1033CA0099273B31912799273630992799273B31FD
:1033DA00912791273130992799273B3393279327B0
:1033EA00842E932F912F9B2F39992799273B31911F
:1033FA0027912731809F822080268426A41E911738
:10340A00842693179B2633841690278426A41E911C
:10341A001784267391273B31981790278426A41E78
:10342A009117842693179B273384168426A41E712A
:10343A009B273936383634369417809F820C803E63
:10344A008B269427982F942F8B2698279427982F8A
:10345A00942F8B2698279427982F942F8126942788
:10346A003894278B269427982F942F8B2698279465
:10347A0027982F942F8B2698279427982F942F8B51
:10348A00269827343098279827982798273B9827F3
:10349A009427982794279827942738942798279829
:1034AA00279827982798273B98279427982794277F
:1034BA008B268B2674000102040810204032323217
:1034CA00323232323232323232053264320500005E
:1034DA000000000000000000000103050A141E2875
:1034EA0032646464646464646432281E140A0503E2
:1034FA00010102040810204080010204080D0A009C
:10350A005620303030300D0A00522000420030314F
:10351A003233343536373839414243444546202020
:10352A002020202020202020202020202020202091
:02353A0020204F
:00000001FF
